:0A0000000C942A000C9400000C94EC
:10000A0000000C9400000C9400000C9400000C9466
:10001A0000000C9400000C9400000C9400000C9456
:10002A0000000C9400000C9400000C9400000C9446
:10003A0000000C9400000C9400000C9400000C9436
:10004A0000000C9400000C940000F894EE27ECBB1E
:10005A00F1E0FBBFEBBFE5BF8DE0A2E0BB27ED936C
:10006A008A95E9F780E094E0A0E6ED930197E9F735
:10007A00EFE5EDBFE4E0EEBFC0E6D1E00C9461002D
:10008A001A930A93EFEFE7BB00E010E00430E0E0D8
:10009A001E0778F4EFEFE8BBA4EFB1E00E9463001B
:1000AA00E0E0E8BBA4EFB1E00E9463000F5F1F4FDE
:1000BA00EDCF099119910895E3DFFFCF109639F03A
:1000CA0080ED97E00197F1F7A8951197C9F7089580
:00000001FF
