:0E0000000C942A000C9400000C9400000C9448
:10000E0000000C9400000C9400000C9400000C9462
:10001E0000000C9400000C9400000C9400000C9452
:10002E0000000C9400000C9400000C9400000C9442
:10003E0000000C9400000C9400000C9400000C9432
:10004E0000000C940000F894EE27ECBBF1E0FBBF2F
:10005E00EBBFE5BF8DE0A2E0BB27ED938A95E9F7F4
:10006E0080E094E0A0E6ED930197E9F7EFE5EDBFB0
:10007E00E4E0EEBFC0E6D1E00C9469000E9475008A
:10008E0021E030E0EFEFE7BB00E010E0083BEBE0F3
:10009E001E07A0F428BBA8ECB0E00E946B00A2E003
:1000AE00A29FF001A39FF00D9F012138E0E03E07D3
:1000BE0010F021E030E00F5F1F4FE8CF0E947A0072
:1000CE0024960895DBDFFFCF109639F080ED97E090
:1000DE000197F1F7A8951197C9F708953A932A93C6
:1000EE001A930A9308953B812A81198108810895F4
:00000001FF
