:060000000C942A000C9490
:1000060000000C9400000C9400000C9400000C946A
:1000160000000C9400000C9400000C9400000C945A
:1000260000000C9400000C9400000C9400000C944A
:1000360000000C9400000C9400000C9400000C943A
:1000460000000C9400000C9400000C940000F8943E
:10005600EE27ECBBF1E0FBBFEBBFE5BF8DE0A2E016
:10006600BB27ED938A95E9F780E094E0A0E6ED934F
:100076000197E9F7EFE5EDBFE4E0EEBFC0E6D1E0BA
:100086000C946200EFEFE4BBEFE0E1BB889A899A3B
:100096008A9A8B9AEFE615D0EFE713D0E7E011D0F6
:1000A600EDE70FD0EDE60DD0E6E60BD0EFE409D094
:1000B600EBE507D0E6E005D0EFE303D00895E2DFF5
:1000C600FFCFE5BBA4EFB1E00C946900109639F0C0
:1000D60080ED97E00197F1F7A8951197C9F7089574
:00000001FF
