:040000000C9432002A
:100004000C9400000C9400000C9400000C9400006C
:100014000C9400000C9400000C9400000C9400005C
:100024000C9400000C9400000C9400000C9400004C
:100034000C9400000C9400000C9400000C9400003C
:100044000C9400000C9400000C9400000C9400002C
:100054000000000000003F065B4F666D7D077F6F68
:10006400F894EE27ECBBF1E0FBBFEBBFE5BF8DE0FE
:10007400A2E0BB27ED938A95E9F780E094E0A0E63F
:10008400ED930197E9F7EFE5EDBFE4E0EEBFC0E6DD
:10009400D1E00C94A300609780E1A0E0B0E0E4E537
:1000A400F0E00E94EB000E94DD0000E010E020E0A0
:1000B40030E040E050E0E0E0EABBEFEFE4BBE0E03A
:1000C400E1BB09B31127AAE0A09FF001A19FF00DA5
:1000D4009F0100240216030680F5A2E3B0E00E940B
:1000E400BD00890130D0EE83FF8333D0AF0131D01E
:1000F400EA87FB87D801EAE0F0E00E94C7008F019D
:10010400088719878A9ADE011C96A40FB51FEC9103
:10011400E05826D08A98899AEA85FB8526D0899862
:10012400889AE885F98521D088988B9AEE81FF8199
:100134001CD08B9822503040CCCF0E94E4006696AD
:100144000895A9DFFFCFD801EAE0F0E00E94DA00C9
:100154000895D801EAE0F0E00E94C7008F01F3CFD0
:10016400E5BBA1E0B0E00C94BD00DE011C96AE0F2F
:10017400BF1FEC91F5CF109639F080ED97E0019711
:10018400F1F7A8951197C9F708950024112490E177
:10019400AA0FBB1F001C111C0E1A1F0A18F40E0E06
:1001A4001F1E01C0A1609A9599F7FD01D001089521
:1001B400ECDFFD0108955A934A933A932A931A93D4
:1001C4000A9308955D814C813B812A8119810881BC
:1001D4000895AC0FBD1F05900D928A95E1F708951F
:00000001FF
