:0A0000000C947D000C9400000C9499
:10000A0000000C9400000C9400000C9400000C9466
:10001A0000000C9400000C9400000C94A0010C94B5
:10002A0000000C9400000C9400000C9400000C9446
:10003A00AA000C9400000C9400000C9400000C948C
:10004A0000000C9400000C9400001027E8036400E0
:10005A000A000100001000011000010054686973D1
:10006A00206973205132004144432025643A2025F7
:10007A0064206D56002020202020202020202020CF
:10008A002020202020202020202020202020202066
:10009A002000546869732069732051310041444338
:1000AA0025643A202564206D560020202020202037
:1000BA0020202020202020202020200080C0010095
:1000CA002D4E414E00494E4600000B00600166006D
:1000DA001D006B017F000B0088019C001200930138
:1000EA00B4000200E801C6000100EC01C8000000EB
:1000FA00F894EE27ECBBF1E0FBBFEBBFE5BF8DE068
:10010A00A2E0BB27ED938A95E9F780E094E0A0E6A8
:10011A00ED930197E9F7E4EDF0E085919591009769
:10012A0061F0A591B59105901590BF01F001059078
:10013A000D920197E1F7FB01F0CFEFE5EDBFE4E0A7
:10014A00EEBFC0E6D1E00C94F4010E94D3042897D4
:10015A00E0E0E883E983EA83EB830E94E104E0E0DC
:10016A00E093B901E093BA01E093BB01E093BC01CB
:10017A000E94EA04E0E0E093BF01E093C001E0934B
:10018A00C101E093C2010E947002E091E701A5EA71
:10019A00B1E0F0E0EE0FFF1FAE0FBF1FE4B1F5B103
:1001AA00ED93FC93A091E701AF5FA093E701A8301C
:1001BA0018F0E0E0E093E701E091E701E05CE7B9DD
:1001CA008BE18A95F1F70E94F304A5EAB1E00E9457
:1001DA00F8040E94FF04E093B901F093BA01609316
:1001EA00BB017093BC010E940A05E4E6F0E060E0FE
:1001FA0070E00E943707A3ECB1E00E9414050E9448
:10020A0019050E941A06EC83FD836E837F830E9480
:10021A0019050E947A070E9413060E9466070E9427
:10022A002505AC81BD818E819F810E94290550F0F0
:10023A000E9425050E9461070E94290511F008F015
:10024A0001C067C00E9470020E94F304A7EDB1E0EA
:10025A00EE0FFF1FEA0FFB1FA091B901B091BA017F
:10026A00A083B183E0E0EA93A0E00E946302A0E6E3
:10027A00B1E00E9491020E940A05EFEFF3E060E00C
:10028A0070E00E943707A8EEB3E080E090E00E9499
:10029A000D07AFEBB1E00E941405A091BF01B09128
:1002AA00C0018091C1019091C2010E940103A5EB96
:1002BA00B1E00E94A9050E945307E7ECF1E0FA9326
:1002CA00EA93E1E7F0E0FA93EA930E94F3040E94CA
:1002DA00E8060E946B070E94E1040E946B0788E00F
:1002EA000E9486042C96E0E0EA93A1E00E94630251
:1002FA00ABE6B1E00E949102E0E0EA93A1E00E943D
:10030A006302A7ECB1E00E949102ACEDB5E00E9455
:10031A007005ADEBB1E00E943005A091BD01B0912E
:10032A00BE0118972CF0E0E0E093BD01E093BE0116
:10033A00369A289646C00E94D304A0E00E94300252
:10034A000E94FF04AAE5B0E080E090E00E940D0759
:10035A00DF01CB01E0E0F4E060E070E00E943707E3
:10036A00EB5FFF4F6F4F7F4FA3EDB1E00E94140583
:10037A00E091D301F091D4016091D5017091D60139
:10038A00A3E3B3E383E290E40E946A06A0E0B0E04C
:10039A0080E09FE30E941A06E093CF01F093D00118
:1003AA006093D1017093D201A091CF01B091D00195
:1003BA008091D1019091D2010E9401030E94A70568
:1003CA00ECBFE991EFBFF991E991B991A99199919E
:1003DA00899179916991F99019900990189504D0A9
:1003EA000E943E02FDCFFFCFE0E0EABBEBBBE7BBDA
:1003FA00E8BBEFEFE4BBE0E0E5BBE1BBE2BBA0E1B9
:10040A000E94A2020895E0E0E5BFE4BFEAB90895B8
:10041A00E0E8E8B9E0E4E7B9E3EAE6B9E0E0E0BF3A
:10042A00EDB9E6BF0895E5E6E3BFE0E0E2BFE0E844
:10043A00ECBFE0E0EFBDEEBDEDBDECBDE7BDE6BD56
:10044A00EBBDEABDE9BDE8BDE2BDE5BDE4BDE3BD86
:10045A00E1E0E9BF0895AA93E881E064E7B98BE196
:10046A008A95F1F7369A349BFECF349AE4B1F5B106
:10047A0090C0C9DFD8DFCCDF78940895AA93E5B39A
:10048A00EF70AE2FE881E07FEA2BE5BB8DE08A951D
:10049A00F1F7AA9A8DE08A95F1F7AA988DE08A95E4
:1004AA00F1F777C0AA93A881E9DFE881E295E883AA
:1004BA00A881E4DF85E88A95F1F76BC0AA93E88101
:1004CA00F0E0E851FE4FE081A981AE0FEBDF5980E1
:1004DA00488022960895A2E00E943605ACE0E2DF49
:1004EA00A1E00E943605E0E04E2E5E2E0895AA9302
:1004FA00A881AA3011F0571448F0E0E0EA93439437
:10050A00A42DDCDFA881AA3009F443C05394A89A29
:10051A00A881C8DFA8983DC0BA93AA931A93A98163
:10052A00BA81ED91A983BA831E2FE03019F0A12F69
:10053A00DEDFF5CF188123960895AA93E4B3E06F1E
:10054A00E4BBA29AA09AA19AAA98A898A998788096
:10055A00E881E058E093EA01E881E054E093EB0196
:10056A00A4E1B0E00E9470050E943C050E943C058F
:10057A000E943C05A0E282DF88EC90E00197F1F747
:10058A00A8E290DFA4E08EDFA5E88CDFA6E08ADF90
:10059A00A2DF219608950E9470077B816A81F98102
:1005AA00E88177FB770F67FD7160972F9E5781F07F
:1005BA0078F0983190F4AA27BB2788270894879562
:1005CA00B795A7959A95D1F7EA23FB23682305C027
:1005DA00E8947727EE27FF2766276F77769508F442
:1005EA00606877F9A991B99189919991EA17FB07FE
:1005FA006807790797FB08950E9470070E946107B0
:10060A000E94D0020E94660719F40E945C0709C082
:10061A00E6F70E945C07A0E0B0E080E89FE30E9452
:10062A00130624960895BA93AA931A930A93AA8151
:10063A00BB8112960E944F07309729F1AA81BB818C
:10064A0014960E944F078F01309761F00230E0E064
:10065A001E0780F0F80131978F01AA81BB81149699
:10066A00ED93FC93AA81BB8112960E9430053197C3
:10067A00AC81A083AA81BB810E944F07FF2312F09D
:10068A000E94300506C0AA81BB81EFEFFFEFED9310
:10069A00FC931981088125960895BA93AA932697FF
:1006AA000E94870710E0AC85BD85E0E0F0E0ED939D
:1006BA00FC93EA89FB893196EA8BFB8B3197E491AB
:1006CA002E2FE03009F415C1E12FE03039F425323C
:1006DA0011F411E002C00E9444050AC1E130A9F4F4
:1006EA00253219F40E94440502C112E040E000E0FC
:1006FA002D3211F401E0FCC02B3211F44BE2F8C0A8
:10070A00203211F440E2F4C002C0E23039F450E081
:10071A0013E0203311F40068EBC003C0E33009F0A2
:10072A00E7C0203310F02A3308F007C0AAE05A9F26
:10073A00502DE22FE0535E0FDBC0E22FE33649F47F
:10074A000E944B05E889F989A481AA930E94510560
:10075A00CEC0E33741F40E944B050E9457050E9420
:10076A00BA041E2F0AC0E03761F40E944B050E94AA
:10077A0057050E94C6041E2F086002600F7730E0FA
:10078A0034C0E43611F0E93611F4046002C0E537EA
:10079A0031F4E4E5F0E0EE83FF8315E00CC0E835C0
:1007AA0011F4086003C0E83709F0A1C0EEE5F0E0F3
:1007BA00EE83FF8314E002FF14C00E944B050E94DF
:1007CA006105AB85AA233AF4EA85FB850E94DC061B
:1007DA00EA87FB874DE2403011F01F5F01C00B7FB3
:1007EA0004C00E944B050E94610500FD11C0151747
:1007FA0078F407FF08C002FF04C00B7F242F1150B2
:10080A0001C020E301C020E20E9444055150EFCF0D
:10081A00312F01FF17C03030A1F003FF06C0EE816F
:10082A00FF812591EE83FF8305C0AE81BF812D91A3
:10083A00AE83BF830E944405503009F051503150B5
:10084A00EACF4BC020E3EE81FF810E945807E88778
:10085A00F987EE81FF813296EE83FF83E885F98579
:10086A00AA85BB85AE17BF0750F02F5FA885B9854B
:10087A00EA85FB85EA1BFB0BEA87FB87EFCF2A3366
:10088A0028F003FF02C0295F01C0295D04FD1AC0D8
:10089A00213320F4A885B985119709F409C05317A3
:1008AA0010F000FF01C013C020E207FF0BC020E3D5
:1008BA00006102FF07C00B7F4A930E945105503026
:1008CA0009F051500E944405503009F051503150FE
:1008DA00A885B985129708F0B5CF00FF08C0503037
:1008EA0031F05150E0E2EA930E945105F8CF10E04E
:1008FA00E0CEAC85BD850E944F070E948E076496A4
:10090A000895FF92F82E26970E9489070E9469058A
:10091A00309719F4EFEFFFEF23C0DE0116960E941D
:10092A00D8068D010E946905EE83FF83E0E0E8871F
:10093A00E987DE011A960E94D8060E944F07FA93A9
:10094A00EA931A930A93E8E1F3E0FA93EA93DE0151
:10095A001A96A3DE9F01AE81BF81E0E0EC93F90114
:10096A000E9490072A96FF900895BA93AA93A99194
:10097A00B991EE27FF276D91662311F03196FBCFCF
:10098A000895BA93AA93AA27BB27E991F9910590EA
:10099A00002011F01196FBCFFD0108950A921A92D8
:1009AA00FA926A937A938A939A93AA93BA93EA9356
:1009BA00FA93EFB7EA930895E091B501F091B60181
:1009CA006091B7017091B8010895E091C301F09167
:1009DA00C4016091C5017091C6010895E091BD01FD
:1009EA00F091BE010895EE0FFF1FAE0FBF1F0E94C8
:1009FA004F07089566277727E093B501F093B6016C
:100A0A006093B7017093B801D7CFD6DFA5E0B0E005
:100A1A0080E090E00E940D07DF01CB0108950E945B
:100A2A00E0050E9453070895D0DFA091B501B09167
:100A3A00B6018091B7019091B8010E947707089595
:100A4A00CDDFA7EDB1E0CFCF662777270E94E0057B
:100A5A000E94B8060895ED91FD913196FE93EE93AA
:100A6A0008950E945702A3E0B0E00C947005A0E339
:100A7A000E94430288EC90E00197F1F708952A93C7
:100A8A00AD85BE85EF85F88909950895E889F989C4
:100A9A003497E88BF98B0895AD85BE85EF85F88983
:100AAA0009950895A889B98914960E944F07EE837B
:100ABA00FF83AE81BF810895A889B98914960E94DF
:100ACA004F07EA87FB870895DE011C960E94D80625
:100ADA000E944F070895109639F080ED97E001972C
:100AEA00F1F7A8951197C9F70895552342F450389C
:100AFA0011F4E0FF04C03196691F791F6BF050E8CA
:100B0A00572711F45F93CFC05F3F31F0660F000C97
:100B1A0057956795752F08955F9300200AF0CFC007
:100B2A00C8C050E8192E1522880F991F9527550F0E
:100B3A00879550E8072E0522660F771F7527550FF0
:100B4A0067950895689401C0E8945F93F2DF70385E
:100B5A0018F07F3F08F4A7C056E1571BAAF4519535
:100B6A0058300EF4593030F0EFEFFFEF6FEF7FE7B8
:100B7A0077F91AC077275523B9F0EE0FFF1F661FC2
:100B8A00771F5A95D1F710C07727583028F0EF2FE2
:100B9A00F62F672F5850F9CF552331F07695679580
:100BAA00F795E7955A95D1F700200AF404D15F9199
:100BBA000895689401C0E894309760407040B1F09D
:100BCA00002426F0772312F40094F5D0172E7EE144
:100BDA00112032F07A95EE0FFF1F661F111CF9CF14
:100BEA00EF2FF62F612D5F938ADF5F9108954F9360
:100BFA00AF01FD01DA01AB01BC01CA01402D012C94
:100C0A00142E4F910895EA0FFB1F681F0895E0956F
:100C1A00F0956095EF5FFF4F6F4F08955F9381DF07
:100C2A00903871F150E8152604C05F937ADF903846
:100C3A0039F1703821F1572F591B2BF112F4D7DFF4
:100C4A00FACF583118F0AA27BB278827583028F03E
:100C5A00AB2FB82F88275850F9CF552329F08695FE
:100C6A00B795A7955A95D9F7502D512572F0CBDF34
:100C7A0038F46795F795E795739513F420C0B7DFB5
:100C8A003EDF5F910895D8F7FBCFEA1BFB0B680B99
:100C9A0051F010F40094BBDF662392F3EE0FFF1FAE
:100CAA00661F7A95CBF7EE27FF27662777275F918E
:100CBA000895EFEFFFEF6FE77FEF5F910895EFEF92
:100CCA00FFEF6FE77FE75F9108955F932ADF703840
:100CDA0051F3903841F301240894791F23F41CF34B
:100CEA0000203AF3ECCF0F921F932F933F934F9329
:100CFA00112722279927689FA0018F9F302D410D28
:100D0A00591F6B9F300D411D591F8E9F27D0BF9FC2
:100D1A0025D06A9F23D0BE9F1DD0AF9F1BD0AE9F08
:100D2A00110D291F391F491F591FE32FF42F652F52
:100D3A00522F4F913F912F911F910F9066232AF0C6
:100D4A00550FEE1FFF1F661F02C073954BF2CDDED3
:100D5A005F910895100D211D391F02C0200D311D0C
:100D6A00491F591F089599239AF0772342F097173C
:100D7A0048F029F4AE17BF07860720F031F098949F
:100D8A0088940895989408940895189488940895D6
:100D9A007723C2F7971798F3A9F7EA17FB076807AB
:100DAA0088F399F3ECCF0024AF0DB01D0895F195A7
:100DBA00E195F0400895F09560957095E195FF4FA3
:100DCA006F4F7F4F08956F2F660F660B762F08952A
:100DDA007A9F702D6B9F700DF89F700DE99F700DB3
:100DEA006A9F602D710DFB9F600D711DE89F600D5C
:100DFA00711D8827FA9FF02D610D781FEB9FF00D6A
:100E0A00611D781FEA9FE02DF10D681F781F089574
:100E1A002ED0DEDF0EF4CFDF08953F934F935F931A
:100E2A00002411244427552730E2AA0FBB1F881F2C
:100E3A00991F001C111C441F551F0E1A1F0A460B2E
:100E4A00570B28F40E0E1F1E461F571F01C0A16024
:100E5A003A9559F7FD01BC01D001CA015F914F9142
:100E6A003F91089504D0D9DF0EF4A5DF0895E894E0
:100E7A0077FF02C0A0DF689497FF0BC00024A095FB
:100E8A00B095809590951196801D901D00F8039459
:100E9A0000FA0895ED91FC9111970895ED93FD9351
:100EAA006D937C9308950590F491E02D0895E8815F
:100EBA00F9816A817B810895A881B9818A819B81A0
:100ECA000895E883F9836A837B8308957A936A9302
:100EDA00FA93EA9308959A938A93BA93AA930895F0
:100EEA00689401C0E89401D067DE182E862F612D20
:100EFA00192E972F712D1B2EBF2FF12D1A2EAE2FC3
:100F0A00E12D08955A934A933A932A931A930A938E
:100F1A0008955D814C813B812A8119810881089558
:00000001FF
