:080000000C9489000C9400002F
:100008000C9400000C9400000C9400000C94000068
:100018000C9400000C9400000C9400000C946D01EA
:100028000C9400000C9400000C9400000C94000048
:100038000C94B6000C9400000C9400000C94000082
:100048000C9400000C9400000C9400001027E803A6
:1000580064000A000100001000011000010054684B
:100068006973206973205132004144432025643A62
:10007800202564206D5600202020202020202020CC
:100088002020202020202020202020202020202068
:100098002020200054686973206973205131004181
:1000A800444325643A202564206D560020202020F2
:1000B80020202020202020202020202020005468DC
:1000C8006973206973205175657374696F6E3300A5
:1000D80080C001002D4E414E00494E4600000B00E5
:1000E800600166001D006B017F000B0088019C0009
:1000F80012009301B4001200A501C6000200FA0123
:10010800D8000100FE01DA000000F894EE27ECBBED
:10011800F1E0FBBFEBBFE5BF8DE0A2E0BB27ED93AD
:100128008A95E9F780E094E0A0E6ED930197E9F776
:10013800E6EEF0E085919591009761F0A591B59173
:1001480005901590BF01F00105900D920197E1F718
:10015800FB01F0CFEFE5EDBFE4E0EEBFC0E6D1E094
:100168000C94C3010E941A052897E0E0E883E9830C
:10017800EA83EB830E942805E0E0E093CB01E0935B
:10018800CC01E093CD01E093CE010E9431050E949D
:100198003A050E94B102E091F901A7EBB1E0F0E065
:1001A800EE0FFF1FAE0FBF1FE4B1F5B1ED93FC9347
:1001B800A091F901AF5FA093F901A83018F0E0E031
:1001C800E093F901E091F901E05CE7B98BE18A95E8
:1001D800F1F70E944405A7EBB1E00E9449050E948F
:1001E8005005E093CB01F093CC016093CD0170935F
:1001F800CE010E945B05E4E6F0E060E070E00E945A
:100208002E080E9465050E946C050E94CC06EC83AE
:10021800FD836E837F830E946C050E9471080E9493
:10022800C5060E945D080E947805AC81BD818E815B
:100238009F810E947C0550F00E9478050E94580812
:100248000E947C0511F008F001C036C00E94B1027E
:100258000E944405A9EEB1E0EE0FFF1FEA0FFB1F55
:10026800A091CB01B091CC01A083B1830E948305FA
:10027800A0E6B1E00E94D2020E945B05EFEFF3E036
:1002880060E070E00E942E08A8EEB3E080E090E005
:100298000E940408A1EDB1E00E9492060E944A085B
:1002A8000E9488050E949105E1E7F0E00E949E0502
:1002B800ABE6B1E00E94B1050E94C005A091CF0154
:1002C800B091D001189714F00E94C805369A289664
:1002D80048C00E941A05A0E00E94FE010E94500535
:1002E800AAE5B0E080E090E00E940408DF01CB01BD
:1002F800E0E0F4E060E070E00E942E08EB5FFF4F62
:100308006F4F7F4FA5EEB1E00E9492060E944A0807
:10031800E091E501F091E6016091E7017091E80153
:10032800A3E3B3E383E290E40E941C07A0E0B0E0FB
:1003380080E09FE30E94CC06E093E101F093E201A4
:100348006093E3017093E401A091E101B091E201AF
:100358008091E3019091E4010E9442030E945906B2
:10036800ECBFE991EFBFF991E991B991A991999100
:10037800899179916991F99019900990189504D00B
:100388000E947302FFCFFFCFE0E0EABBEBBBE7BB05
:10039800E8BBEFEFE4BBE0E0E5BBE1BBE2BBA0E11B
:1003A8000E94E3020895E0E0E3BFE2BF0E94CE05A9
:1003B800E0E01EC0E0E0E5BFE4BFEAB90895E0E888
:1003C800E8B9E0E4E7B9E3EA05C0E0E8E8B9E0E461
:1003D800E7B9EBEEE6B9E0E0E0BFEDB9E6BF0895B6
:1003E800E5E6E3BFE0E0E2BFE0E80E94CE05E1E039
:1003F800E9BF0895AA93E881E064E7B98BE18A959B
:10040800F1F7369A349BFECF349AE4B1F5B10C94E7
:100418000F03E0E0E093C701E093C801E093C9014E
:10042800E093CA010E94C8050E943A05E0E0E09303
:10043800D501E093D601E093D701E093D801B3DF6B
:10044800B9DFBDDF8AD0A8E8B1E0A8D00E94C8050E
:10045800A091CF01B091D001189794F5A091CF0148
:10046800C9DF0E945005A5E0B0E080E090E00E945E
:1004780004080E946505A091D501B091D60180912C
:10048800D7019091D801E0E0F0EC6FE774E40E94A6
:100498006A070E94DF05E0E0F0E06AE774E40E9482
:1004A8001C070E94DF050E949105E7EAF0E00E9420
:1004B8009E05A3E9B1E00E94B1050E94C005C8CF1E
:1004C8000895A0E17CD06FDF75DF7FDF0E94C8054B
:1004D800789408956FDF84DF72DF7894089599DF48
:1004E8003CD00E948305A5EAB1E058D0F3DFA0E133
:1004F800B7E20E94220631D00E948305E2DF089508
:10050800AA93E5B3EF70AE2FE881E07FEA2BE5BB55
:100518008DE08A95F1F7AA9A8DE08A95F1F7AA9865
:100528008DE08A95F1F777C0AA93A881E9DFE88181
:10053800E295E883A881E4DF85E88A95F1F76BC046
:10054800AA93E881F0E0E650FE4FE081A981AE0F62
:10055800EBDF5980488022960895A2E00E94E805C2
:10056800ACE0E2DFA1E00E94E805E0E04E2E5E2E5E
:100578000895AA93A881AA3011F0571448F0E0E032
:10058800EA934394A42DDCDFA881AA3009F443C080
:100598005394A89AA881C8DFA8983DC0BA93AA9393
:1005A8001A93A981BA81ED91A983BA831E2FE030ED
:1005B80019F0A12FDEDFF5CF188123960895AA93AD
:1005C800E4B3E06FE4BBA29AA09AA19AAA98A8986B
:1005D800A9987880E881E058E093FC01E881E0542C
:1005E800E093FD01A4E1B0E00E9422060E94EE051E
:1005F8000E94EE050E94EE05A0E282DF88EC90E002
:100608000197F1F7A8E290DFA4E08EDFA5E88CDF80
:10061800A6E08ADFA2DF219608950E9467087B8101
:100628006A81F981E88177FB770F67FD7160972F01
:100638009E5781F078F0983190F4AA27BB27882735
:1006480008948795B795A7959A95D1F7EA23FB2340
:10065800682305C0E8947727EE27FF2766276F777A
:10066800769508F4606877F9A991B991899199917B
:10067800EA17FB076807790797FB08950E94670840
:100688000E9458080E9411030E945D0819F40E94F4
:10069800530809C0E6F70E945308A0E0B0E080E8DC
:1006A8009FE30E94C50624960895BA93AA931A93C5
:1006B8000A93AA81BB8112960E944608309759F185
:1006C800AA81BB8114960E9446088F01309761F079
:1006D8000230E0E01E0798F0F80131978F01AA81F7
:1006E800BB811496ED93FC93AA81BB811296ED9180
:1006F800FD913196FE93EE933197AC81A083AA8148
:10070800BB810E944608FF232AF0ED91FD913196A6
:10071800FE93EE9306C0AA81BB81EFEFFFEFED9346
:10072800FC931981088125960895BA93AA93269770
:100738000E947E0810E0AC85BD85E0E0F0E0ED9316
:10074800FC93EA89FB893196EA8BFB8B3197E4911C
:100758002E2FE03009F415C1E12FE03039F42532AD
:1007680011F411E002C00E94F6050AC1E130A9F4B3
:10077800253219F40E94F60502C112E040E000E0BB
:100788002D3211F401E0FCC02B3211F44BE2F8C019
:10079800203211F440E2F4C002C0E23039F450E0F3
:1007A80013E0203311F40068EBC003C0E33009F014
:1007B800E7C0203310F02A3308F007C0AAE05A9F98
:1007C800502DE22FE0535E0FDBC0E22FE33649F4F1
:1007D8000E94FD05E889F989A481AA930E9403066D
:1007E800CEC0E33741F40E94FD050E9409060E942D
:1007F80001051E2F0AC0E03761F40E94FD050E9422
:1008080009060E940D051E2F086002600F7730E070
:1008180034C0E43611F0E93611F4046002C0E5375B
:1008280031F4E4E5F0E0EE83FF8315E00CC0E83531
:1008380011F4086003C0E83709F0A1C0EEE5F0E064
:10084800EE83FF8314E002FF14C00E94FD050E949E
:100858001306AB85AA233AF4EA85FB850E94D307E1
:10086800EA87FB874DE2403011F01F5F01C00B7F24
:1008780004C00E94FD050E94130600FD11C0151753
:1008880078F407FF08C002FF04C00B7F242F115023
:1008980001C020E301C020E20E94F6055150EFCFCD
:1008A800312F01FF17C03030A1F003FF06C0EE81E1
:1008B800FF812591EE83FF8305C0AE81BF812D9115
:1008C800AE83BF830E94F605503009F05150315075
:1008D800EACF4BC020E3EE81FF810E944F08E887F2
:1008E800F987EE81FF813296EE83FF83E885F985EB
:1008F800AA85BB85AE17BF0750F02F5FA885B985BD
:10090800EA85FB85EA1BFB0BEA87FB87EFCF2A33D7
:1009180028F003FF02C0295F01C0295D04FD1AC049
:10092800213320F4A885B985119709F409C0531714
:1009380010F000FF01C013C020E207FF0BC020E346
:10094800006102FF07C00B7F4A930E9403065030E4
:1009580009F051500E94F605503009F051503150BD
:10096800A885B985129708F0B5CF00FF08C05030A8
:1009780031F05150E0E2EA930E940306F8CF10E00C
:10098800E0CEAC85BD850E9446080E948508649625
:100998000895FF92F82E26970E9480080E941B0651
:1009A800309719F4EFEFFFEF23C0DE0116960E948F
:1009B800CF078D010E941B06EE83FF83E0E0E887E6
:1009C800E987DE011A960E94CF070E944608FA932B
:1009D800EA931A930A93E9E5F3E0FA93EA93DE01BE
:1009E8001A96A3DE9F01AE81BF81E0E0EC93F90186
:1009F8000E9487082A96FF900895BA93AA93A9910E
:100A0800B991EE27FF276D91662311F03196FBCF40
:100A18000895BA93AA93AA27BB27E991F99105905B
:100A2800002011F01196FBCFFD0108950A921A9249
:100A3800FA926A937A938A939A93AA93BA93EA93C7
:100A4800FA93EFB7EA930895E091C701F091C801CE
:100A58006091C9017091CA010895E091D501F091A2
:100A6800D6016091D7017091D8010895E0E0E09334
:100A7800D101E093D201E093D301E093D40108952A
:100A8800E091CF01F091D0010895EE0FFF1FAE0F56
:100A9800BF1F0E944608089566277727E093C7017D
:100AA800F093C8016093C9017093CA01CDCFCCDF20
:100AB800A5E0B0E080E090E00E940408DF01CB01EF
:100AC8000895A5EDB1E00E9492060E944A08089593
:100AD800C4DFA091C701B091C8018091C90190916C
:100AE800CA010E946E080895CBDFA9EEB1E0CDCF10
:100AF800662777270E9492060E94AF070895E0E0D4
:100B0800EA93A0E00C94A402A091D101B091D20183
:100B18008091D3019091D40108950E944203A7ECDB
:100B2800B1E00E945B060E944A08E9EDF1E0FA9301
:100B3800EA930895FA93EA93A3DF0E94DF070E94DD
:100B4800620882DF0E94620888E00E94CD042C9629
:100B5800E0E0EA93A1E00C94A4020E94D202E0E053
:100B6800EA93A1E00E94A402A9EDB1E00E94D2029A
:100B7800ACEDB5E00C942206AFECB1E0ED91FD913F
:100B88003196FE93EE930895E0E0E093CF01E09371
:100B9800D0010895ECBFE0E0EFBDEEBDEDBDECBDCA
:100BA800E7BDE6BDEBBDEABDE9BDE8BDE2BDE5BD1B
:100BB800E4BDE3BD0895E093D101F093D2016093C1
:100BC800D3017093D401A0CF0E949802A3E0B0E0B3
:100BD8000C942206A0E30E94840288EC90E001971E
:100BE800F1F708952A93AD85BE85EF85F8890995B3
:100BF8000895E889F9893497E88BF98B0895AD85CC
:100C0800BE85EF85F88909950895A889B98914964C
:100C18000E944608EE83FF83AE81BF810895A889AC
:100C2800B98914960E944608EA87FB870895DE0171
:100C38001C960E94CF070E9446080895109639F026
:100C480080ED97E00197F1F7A8951197C9F70895F6
:100C5800552342F4503811F4E0FF04C03196691F5F
:100C6800791F6BF050E8572711F45F93CFC05F3FAF
:100C780031F0660F000C57956795752F08955F93AF
:100C880000200AF0CFC0C8C050E8192E1522880FDE
:100C9800991F9527550F879550E8072E0522660F4F
:100CA800771F7527550F67950895689401C0E894D4
:100CB8005F93F2DF703818F07F3F08F4A7C056E161
:100CC800571BAAF4519558300EF4593030F0EFEF15
:100CD800FFEF6FEF7FE777F91AC077275523B9F051
:100CE800EE0FFF1F661F771F5A95D1F710C07727A1
:100CF800583028F0EF2FF62F672F5850F9CF55238B
:100D080031F076956795F795E7955A95D1F70020D4
:100D18000AF449D15F910895689401C0E894309726
:100D280060407040B1F0002426F0772312F400945C
:100D38003AD1172E7EE1112032F07A95EE0FFF1F7F
:100D4800661F111CF9CFEF2FF62F612D5F938ADFF5
:100D58005F9108954F93AF01FD01DA01AB01BC012A
:100D6800CA01402D012C142E4F910895EA0FFB1F44
:100D7800681F0895E095F0956095EF5FFF4F6F4FFE
:100D880008955F9381DF903871F150E8152604C00B
:100D98005F937ADF903839F1703821F1572F591B5A
:100DA8002BF112F4D7DFFACF583118F0AA27BB2756
:100DB8008827583028F0AB2FB82F88275850F9CFFC
:100DC800552329F08695B795A7955A95D9F7502DAB
:100DD800512572F0CBDF38F46795F795E795739551
:100DE80013F420C0B7DF3EDF5F910895D8F7FBCF3B
:100DF800EA1BFB0B680B51F010F40094BBDF662371
:100E080092F3EE0FFF1F661F7A95CBF7EE27FF27A9
:100E1800662777275F910895EFEFFFEF6FE77FEF82
:100E28005F910895EFEFFFEF6FE77FE75F91089518
:100E38005F932ADF703851F3903841F30124089406
:100E4800791F23F41CF300203AF3ECCF0F921F9381
:100E58002F933F934F93112722279927689FA0012B
:100E68008F9F302D410D591F6B9F300D411D591F0C
:100E78008E9F27D0BF9F25D06A9F23D0BE9F1DD0AD
:100E8800AF9F1BD0AE9F110D291F391F491F591F36
:100E9800E32FF42F652F522F4F913F912F911F91E0
:100EA8000F9066232AF0550FEE1FFF1F661F02C022
:100EB80073954BF2CDDE5F910895100D211D391FFA
:100EC80002C0200D311D491F591F08955F93DCDEB4
:100ED800703821F411200AF49FCFA4CF903809F478
:100EE80095CF01240894970B1BF4D4F30020F3CF7B
:100EF800792F1F932F933F934F9311241127222764
:100F080033274427552790E2AE17BF0786074107C6
:100F180030F0AE1BBF0B860B410B089401C08894C0
:100F2800551F221F331F111CAA1FBB1F881F441FD8
:100F38009A9551F7F901612D4F913F912F911F918A
:100F4800662332F0550FEE1FFF1F661F7A9543F296
:100F58007FDE5F91089599239AF0772342F09717DF
:100F680048F029F4AE17BF07860720F031F09894AF
:100F780088940895989408940895189488940895E6
:100F88007723C2F7971798F3A9F7EA17FB076807BB
:100F980088F399F3ECCF0024AF0DB01D0895F195B7
:100FA800E195F0400895F09560957095E195FF4FB3
:100FB8006F4F7F4F08956F2F660F660B762F08953A
:100FC8007A9F702D6B9F700DF89F700DE99F700DC3
:100FD8006A9F602D710DFB9F600D711DE89F600D6C
:100FE800711D8827FA9FF02D610D781FEB9FF00D7A
:100FF800611D781FEA9FE02DF10D681F781F089585
:101008002ED0DEDF0EF4CFDF08953F934F935F932A
:10101800002411244427552730E2AA0FBB1F881F3C
:10102800991F001C111C441F551F0E1A1F0A460B3E
:10103800570B28F40E0E1F1E461F571F01C0A16034
:101048003A9559F7FD01BC01D001CA015F914F9152
:101058003F91089504D0D9DF0EF4A5DF0895E894F0
:1010680077FF02C0A0DF689497FF0BC00024A0950B
:10107800B095809590951196801D901D00F8039469
:1010880000FA0895ED91FC9111970895ED93FD9361
:101098006D937C9308950590F491E02D0895E8816F
:1010A800F9816A817B810895A881B9818A819B81B0
:1010B8000895E883F9836A837B8308957A936A9312
:1010C800FA93EA9308959A938A93BA93AA93089500
:1010D800689401C0E89401D022DE182E862F612D75
:1010E800192E972F712D1B2EBF2FF12D1A2EAE2FD3
:1010F800E12D08955A934A933A932A931A930A939F
:1011080008955D814C813B812A8119810881089568
:00000001FF
