:0C0000000C94C1000C9400000C94EE0065
:10000C000C9400000C9400000C9400000C94000064
:10001C000C9400000C9400000C9400000C94000054
:10002C000C9400000C9400000C9400000C94000044
:10003C000C9400000C9400000C9400000C94000034
:10004C000C9400000C9400003031323334353637C8
:10005C00383941424344454657656C636F6D6520A2
:10006C00746F20746865206F6E6C696E65206C61AE
:10007C006220636C61737365732064756520746FA3
:10008C0020436F726F6E6120646973656173652EB6
:10009C0000004768617A616C65205A65687461621A
:1000AC000039363239313633005133205374617292
:1000BC00747300513320456E6465640051342053D1
:1000CC0074617274730053706565643F3F283030FF
:1000DC002D353072290045450054696D653A3F3F16
:1000EC002830302D39397329005765696768743F9A
:1000FC003F2830302D393946290054656D703F3F0B
:10010C002832302D383043290054686520456E6400
:10011C00000080C01000E80154000F0060019E0038
:10012C0008006F01AD000A007701B50009008101DC
:10013C00BF000A008A01C80010009401D20003001D
:10014C00A401E2001000A701E5000300B701E200E2
:10015C001100BA01F5000300CB01E2000F00CE0143
:10016C0006010300DD01E2000800E00115010200B8
:10017C00FA011E010000F894EE27ECBBF1E0FBBF86
:10018C00EBBFE5BF8DE0A2E0BB27ED938A95E9F7C5
:10019C0080E094E0A0E6ED930197E9F7E0E2F1E06E
:1001AC0085919591009761F0A591B5910590159069
:1001BC00BF01F00105900D920197E1F7FB01F0CF23
:1001CC00EFE5EDBFE4E0EEBFC0E6D1E00C940F012B
:1001DC000A921A92FA926A937A938A939A93AA93AE
:1001EC00BA93EA93FA93EFB7EA93EFE0E7BBE0EF49
:1001FC00E8BB0E945102E991EFBFF991E991B991E5
:10020C00A9919991899179916991F9901990099095
:10021C00189503D00E943E02FFCFEFEFEABBE0E05F
:10022C00EBBBE0EFE7BBE0E0E8BBE4BBE5BBE1BB6D
:10023C00E2BBE3BFE2BFECBFEFBDEEBDEDBDECBD7D
:10024C00E7BDE6BDEBBDEABDE9BDE8BDE2BDE5BD80
:10025C00E4BDE3BDE9BFEBB7E068EBBFE8E0E5BFA9
:10026C00E0E0E4BFE0E8EABFE0E0EAB9E0E8E8B9E2
:10027C00E0E0E0BFE6B9EDB9E6BFA0E10E941F03E4
:10028C0008950E94C30300E611E02FE631E0A0E1DF
:10029C000E941F03D8010E944D03D9010E945403F0
:1002AC000E94CA0324960895E99789E3A0E0B0E080
:1002BC00E4E6F0E00E94CF030E94C10300E010E0EE
:1002CC0020E030E040E050E00E945C0300E010E0F1
:1002DC000833E0E01E0720F50E946603F8017096D3
:1002EC00AF01D8015096D89730F0E8E3F0E0E01B6E
:1002FC00F10B3197AF0198012417350750F4DE014B
:10030C001696A20FB31FAC910E94F9022F5F3F4FBC
:10031C00F3CFA8E7B0E00E94B2030F5F1F4FD8CF16
:10032C000E94C803EF9608951A930A9300E010E018
:10033C000E945C03A7E7B1E00E940E030E946D03CC
:10034C000E9466030431E0E01E0740F4A4D00F5F66
:10035C001F4FA4E6B0E00E94B203F4CF0E94ED025E
:10036C00A1E8B1E00E94540380C00E94ED02AAE80B
:10037C00B1E00E940E03A8ECB0E00E94B2030E9410
:10038C006603EFE0E7BBE0EFE8BB7894A8EBBBE0DB
:10039C007FC01A930A930E946603A4E9B1E00E94FD
:1003AC004D030E947103153311F4003321F41633FD
:1003BC0010F40A3338F00E94ED02A4EAB1E00E9476
:1003CC00780303C00E946D0301C0E5CF0E94660351
:1003DC00A7EAB1E00E944D030E9471031A3310F496
:1003EC000A3338F00E94ED02A7EBB1E00E947803CB
:1003FC0003C00E946D0301C0E9CF0E946603AAEB03
:10040C00B1E00E944D030E9471031A3310F40A33B9
:10041C0038F00E94ED02ABECB1E00E94780305C00D
:10042C00A0EDB7E00E94B20301C0E7CF0E946603C3
:10043C00AEECB1E00E944D030E947103183311F42D
:10044C00003331F4123320F0193310F40A3338F03E
:10045C000E94ED02ADEDB1E00E94780305C0A0ED65
:10046C00B7E00E94B20301C0E1CF09911991089540
:10047C00A0E10E941F0305DF17DF56DF76DF89DF5F
:10048C000E94ED02A0EEB1E00E940E03A0EDB7E0D9
:10049C000E94B2030895E0EFE7BBEFEFE8BBE8B3CF
:1004AC00EF700E947E03A091F801AF30C1F70E945B
:1004BC008403A091F801AF30D1F30E948403A09182
:1004CC00F801AF30A1F3EFEE0E947E03A091F8018A
:1004DC00AF3021F0E0E0E093F90122C0EFED0E9493
:1004EC007E03A091F801AF3021F0E1E0E093F90137
:1004FC0017C0EFEB0E947E03A091F801AF3021F002
:10050C00E2E0E093F9010CC0EFE70E947E03A091BA
:10051C00F801AF3021F0E3E0E093F90101C0D3CF53
:10052C00A091F801AE3041F40E948D03AC915BD0E8
:10053C000E948D03EC910895A091F801AD3039F42F
:10054C000E949703A1810E94A103E1810895A091CB
:10055C00F801AB3039F40E949703A2810E94A103E9
:10056C00E28108950E949703A3810E94A103E38175
:10057C0008950895AA93EBB3EF70AE2FE881E07F56
:10058C00EA2BEBBB8DE08A95F1F7DA9A8DE08A9530
:10059C00F1F7DA988DE08A95F1F777C0AA93A881E4
:1005AC00E9DFE881E295E883A881E4DF85E88A95B4
:1005BC00F1F76BC0AA93E881F0E0E650FE4FE081C2
:1005CC00A981AE0FEBDF5980488022960895A2E0F6
:1005DC000E94A403ACE0E2DFA1E00E94A403E0E0EF
:1005EC004E2E5E2E0895AA93A881AA3011F05714AE
:1005FC0048F0E0E0EA934394A42DDCDFA881AA3014
:10060C0009F443C05394D89AA881C8DFD8983DC048
:10061C00BA93AA931A93A981BA81ED91A983BA834B
:10062C001E2FE03019F0A12FDEDFF5CF18812396B5
:10063C000895AA93EAB3E06FEABBD29AD09AD19A02
:10064C00DA98D898D9987880E881E058E093FC0142
:10065C00E881E054E093FD01A4E1B0E00E94B20314
:10066C000E94AA030E94AA030E94AA03A0E282DFAE
:10067C0088EC90E00197F1F7A8E290DFA4E08EDF20
:10068C00A5E88CDFA6E08ADFA2DF219608950E9400
:10069C000E03E0E0EA93A1E00C94E0020E940E034A
:1006AC00A0EDB7E00E94B2030C94ED02A0E10E9411
:1006BC001F030E94ED02E0E0EA93A0E00C94E0023C
:1006CC000E94ED02E0E0EA93A0E00C94E002A8EEB8
:1006DC00B3E00C94B2030E9451021E2F0E945102EF
:1006EC000E2F08950E940E03A0EDB7E00C94B203F8
:1006FC00E8BBE6B3EF70E093F8010895A4E1B0E035
:10070C000E94B203E6B3EF70E093F8010895E09114
:10071C00F901A8EEB1E0F0E00E94BC03AE0FBF1FE0
:10072C000895E091F901A8EEB1E0F0E00E94BC035D
:10073C00EA0FFB1F08950E94F902F3CF0E94D40226
:10074C00A3E0B0E00C94B203A0E30E94C00288ECDA
:10075C0090E00197F1F70895109639F080ED97E04D
:10076C000197F1F7A8951197C9F70895EE0FFF1FA0
:10077C00EE0FFF1F08955A934A933A932A931A93B4
:10078C000A9308955D814C813B812A8119810881EE
:10079C000895AC0FBD1F05900D928A95E1F7089551
:00000001FF
