:100000000C9433000C9400000C9400000C9400003D
:100010000C9400000C9400000C9400000C94000060
:100020000C9400000C9400000C9400000C94000050
:100030000C9400000C9400000C9400000C94000040
:100040000C9400000C9400000C9400000C94000030
:100050000C9400003F065B4F666D7D077F6F0A00C2
:10006000600154000000F894EE27ECBBF1E0FBBF08
:10007000EBBFE5BF8DE0A2E0BB27ED938A95E9F7E2
:1000800080E094E0A0E6ED930197E9F7EEE5F0E07B
:1000900085919591009761F0A591B5910590159086
:1000A000BF01F00105900D920197E1F7FB01F0CF40
:1000B000EFE5EDBFE4E0EEBFC0E6D1E00C946000F8
:1000C0000E943F02FFCFBA93AA931A930A93EC813E
:1000D000F0E0309799F4EFEFEABB00E010E00E9407
:1000E000630258F4EFEFEBBB0E946802E0E0EBBB69
:1000F0000E9468020F5F1F4FF2CF04C0E130A0E002
:10010000FA0799F4EFEFE7BB00E010E00E9463020A
:1001100058F4EFEFE8BB0E946802E0E0E8BB0E9401
:1001200068020F5F1F4FF2CF04C0E230A0E0FA0771
:1001300099F4EFEFE4BB00E010E00E94630258F492
:10014000EFEFE5BB0E946802E0E0E5BB0E946802B9
:100150000F5F1F4FF2CF04C0E330A0E0FA0791F425
:10016000EFEFE1BB00E010E00E94630258F4EFEF14
:10017000E2BB0E946802E0E0E2BB0E9468020F5FFF
:100180001F4FF2CFEFEFE7BB00E010E00E946302E9
:1001900058F4EFEFE8BB0E946802E0E0E8BB0E9481
:1001A00068020F5F1F4FF2CF1981088127960895CB
:1001B000BA93AA930E941A0441E050E0EFEFE7BB24
:1001C000AE81BF81E4E1F0E00E94ED03EE83FF83A6
:1001D00020E030E0E885F9852E173F0728F40E94DB
:1001E0006C022F5F3F4FF6CF00E010E00431E0E0FB
:1001F0001E0780F448BBAE81BF810E949D020E9411
:100200006C024138E0E05E0710F041E050E00F5F23
:100210001F4FECCF0E9421042A960895BA93AA9307
:100220000E941C0400E010E020E030E0EE81FF813D
:10023000309721F4E0E0EABB09B317C0E130A0E059
:10024000FA0781F0E230A0E0FA0721F4E0E0E4BB35
:1002500003B30BC0E330A0E0FA0721F4E0E0E1BB18
:1002600000B303C0E0E0E7BB06B31127EC81FD81DA
:10027000309769F4EFEFEABB283BEBE03E0720F450
:100280000BBB0E947302F8CF20E030E037C0E130B2
:10029000A0E0FA0759F4EFEFE7BB283BEBE03E079D
:1002A00020F408BB0E947302F8CF28C0E230A0E01F
:1002B000FA0759F4EFEFE4BB283BEBE03E0720F4EC
:1002C00005BB0E947302F8CF19C0E330A0E0FA0723
:1002D00059F4EFEFE1BB283BEBE03E0720F402BB13
:1002E0000E947302F8CF0AC0EFEFE7BB283BEBE0B8
:1002F0003E0720F408BB0E947302F8CF0E9423043B
:1003000028960895BA93AA93E881F9813097F9F471
:100310000E947902EFE30E948202E6E00E948202DC
:10032000EBE50E948202EFE40E948202E6E60E9470
:100330008202EDE60E948202EDE70E948202E7E07F
:100340000E948202EFE70E948202EFE61EC00E9436
:100350007902EFE60E948202EFE70E948202E7E064
:100360000E948202EDE70E948202EDE60E94820274
:10037000E6E60E948202EFE40E948202EBE50E9420
:100380008202E6E00E948202EFE3E5BBA4EFB1E067
:100390000E949D02229608950E9403042697E0E0A1
:1003A000E883E983EA83EB83EC83ED830E941A04FC
:1003B00000E010E020E030E040E050E0EABBEFEF8A
:1003C000E4BBE0E0E1BB09B31127AAE0A09FF00184
:1003D000A19FF00D9F01AC85BD858E859F85E0E0D6
:1003E000F0E060E271E40E949203EC87FD876E8783
:1003F0007F87002402160306F0F5A2E3B0E00E9416
:100400009D02890184D0EE83FF8387D0AF0185D020
:10041000EA87FB87D801EAE0F0E00E94ED038F0154
:10042000088719878A9AA0E6B1E0A40FB51FEC915E
:10043000E0587AD08A98899AEA85FB857AD089989B
:10044000889AE885F98575D088988B9AEE81FF8126
:1004500070D08B98EC85FD856E857F85D9018827C6
:1004600099270E940A040E940D040E9440030E94E2
:10047000D4029F01BECF0E94210460960895E5E05A
:10048000F0E0FA93EA93E1E0EA93A4EFB1E00E948E
:100490006300E2E0F0E0FA93EA93A8E8B3E10E9497
:1004A000D800E0E0F0E0FA93EA93A1E0B0E00E9427
:1004B0000E01A0E0B0E00E948201AAE9B9E989E951
:1004C0009EE36ADF0895ED81FE810E171F070895F0
:1004D000AA81BB810C949D02A2E0A49FF001A59F7C
:1004E000F00DAF0108952F5F3F4FA1E0B0E00C94F5
:1004F0009D02EFEFE4BBEFE0E1BB889A899A8A9A0C
:100500008B9A0895E5BBA4EFB1E00C949D02D8014D
:10051000EAE0F0E00E9400040895D801EAE0F0E08B
:100520000E94ED038F01F3CFE5BBA1E0B0E00C9496
:100530009D02E05AFE4FE081F7CF109639F080ED32
:1005400097E00197F1F7A8951197C9F708955523FA
:1005500042F4503811F4E0FF04C03196691F791F4E
:100560006BF050E8572711F45F93CAC05F3F31F03A
:10057000660F000C57956795752F08955F930020BF
:100580000AF0CAC0C3C050E8192E1522880F991F5F
:100590009527550F879550E8072E0522660F771F80
:1005A0007527550F67950895689401C0E8945F9387
:1005B000F2DF703818F07F3F08F4A2C056E1571BF5
:1005C000AAF4519558300EF4593030F0EFEFFFEFA8
:1005D0006FEF7FE777F91AC077275523B9F0EE0F51
:1005E000FF1F661F771F5A95D1F710C07727583025
:1005F00028F0EF2FF62F672F5850F9CF552331F001
:1006000076956795F795E7955A95D1F700200AF406
:10061000D7D05F910895689401C0E8943097604006
:100620007040B1F0002426F0772312F40094C8D073
:10063000172E7EE1112032F07A95EE0FFF1F661F14
:10064000111CF9CFEF2FF62F612D5F938ADF5F9199
:1006500008954F93AF01FD01DA01AB01BC01CA015E
:10066000402D012C142E4F910895EA0FFB1F681F97
:100670000895E095F0956095EF5FFF4F6F4F0895F7
:100680005F9381DF903849F150E81526703821F1E9
:10069000572F591B2BF112F4DCDFFACF583118F029
:1006A000AA27BB278827583028F0AB2FB82F8827D8
:1006B0005850F9CF552329F08695B795A7955A95A7
:1006C000D9F7502D512572F0D0DF38F46795F795A2
:1006D000E795739513F420C0BCDF43DF5F91089565
:1006E000D8F7FBCFEA1BFB0B680B51F010F400941A
:1006F000C0DF662392F3EE0FFF1F661F7A95CBF7DC
:10070000EE27FF27662777275F910895EFEFFFEF2A
:100710006FE77FEF5F910895EFEFFFEF6FE77FE700
:100720005F9108955F932FDF703851F3903841F354
:1007300001240894791F23F41CF300203AF3ECCF32
:100740000F921F932F933F934F931127222799279F
:10075000689FA0018F9F302D410D591F6B9F300D59
:10076000411D591F8E9F27D0BF9F25D06A9F23D040
:10077000BE9F1DD0AF9F1BD0AE9F110D291F391FEB
:10078000491F591FE32FF42F652F522F4F913F918F
:100790002F911F910F9066232AF0550FEE1FFF1F18
:1007A000661F02C073954BF2D2DE5F910895100D63
:1007B000211D391F02C0200D311D491F591F0895E9
:1007C000F09560957095E195FF4F6F4F7F4F0895BD
:1007D0008B2F880F880B982F08950024112490E107
:1007E000AA0FBB1F001C111C0E1A1F0A18F40E0EB4
:1007F0001F1E01C0A1609A9599F7FD01D0010895CF
:10080000ECDFFD0108959A938A93BA93AA93089511
:10081000689401C0E89401D001DF182E862F612D65
:10082000192E972F712D1B2EBF2FF12D1A2EAE2FA3
:10083000E12D08955A934A933A932A931A930A936F
:1008400008955D814C813B812A8119810881089539
:00000001FF
