:100000000C942A000C9400000C9400000C94000046
:100010000C9400000C9400000C9400000C94000060
:100020000C9400000C9400000C9400000C94000050
:100030000C9400000C9400000C9400000C94000040
:100040000C9400000C9400000C9400000C94000030
:100050000C940000F894EE27ECBBF1E0FBBFEBBF83
:10006000E5BF8DE0A2E0BB27ED938A95E9F780E03C
:1000700094E0A0E6ED930197E9F7EFE5EDBFE4E04A
:10008000EEBFC0E6D1E00C944500E5E0F0E0FA9365
:10009000EA93E1E0EA93A4EFB1E001D0FFCFBA9395
:1000A000AA931A930A93EC81F0E0309781F4EFEF72
:1000B000EABB00E010E059D048F4EFEFEBBB5AD0B8
:1000C000E0E0EBBB57D00F5F1F4FF5CF04C0E1302E
:1000D000A0E0FA0781F4EFEFE7BB00E010E045D0C5
:1000E00048F4EFEFE8BB46D0E0E0E8BB43D00F5F59
:1000F0001F4FF5CF04C0E230A0E0FA0781F4EFEF24
:10010000E4BB00E010E031D048F4EFEFE5BB32D0C3
:10011000E0E0E5BB2FD00F5F1F4FF5CF04C0E33009
:10012000A0E0FA0779F4EFEFE1BB00E010E01DD0AA
:1001300048F4EFEFE2BB1ED0E0E0E2BB1BD00F5F64
:100140001F4FF5CFEFEFE7BB00E010E00ED048F413
:10015000EFEFE8BB0FD0E0E0E8BB0CD00F5F1F4F24
:10016000F5CF1981088127960895ED81FE810E173C
:100170001F070895AA81BB810C94BE00109639F028
:1001800080ED97E00197F1F7A8951197C9F70895C9
:00000001FF
