:0E0000000C9433000C9400000C9400000C943F
:10000E0000000C9400000C9400000C9400000C9462
:10001E0000000C9400000C9400000C9400000C9452
:10002E0000000C9400000C9400000C9400000C9442
:10003E0000000C9400000C9400000C9400000C9432
:10004E0000000C9400001027E80364000A00010071
:10005E000010000110000100F894EE27ECBBF1E057
:10006E00FBBFEBBFE5BF8DE0A2E0BB27ED938A950A
:10007E00E9F780E094E0A0E6ED930197E9F7EFE56C
:10008E00EDBFE4E0EEBFC0E6D1E00C944E00E2E03E
:10009E00F0E0FA93EA93A8E8B3E10E945700FFCF8D
:1000AE00BA93AA930E94B10041E050E0EFEFE7BB94
:1000BE00AE81BF81E4E1F0E00E949E00EE83FF83FB
:1000CE0020E030E0E885F9852E173F0728F40E94DE
:1000DE008D002F5F3F4FF6CF00E010E00431E0E0DF
:1000EE001E0780F448BBAE81BF810E9494000E941F
:1000FE008D004138E0E05E0710F041E050E00F5F08
:10010E001F4FECCF0E94B8002A960895A2E0A49F3C
:10011E00F001A59FF00DAF010895109639F080ED16
:10012E0097E00197F1F7A8951197C9F70895002464
:10013E00112490E1AA0FBB1F001C111C0E1A1F0ADE
:10014E0018F40E0E1F1E01C0A1609A9599F7FD01BD
:10015E00D00108955A934A933A932A931A930A9385
:10016E0008955D814C813B812A8119810881089512
:00000001FF
