:100000000C942A000C9400000C9400000C94000046
:100010000C9400000C9400000C9400000C94000060
:100020000C9400000C9400000C9400000C94000050
:100030000C9400000C9400000C9400000C94000040
:100040000C9400000C9400000C9400000C94000030
:100050000C940000F894EE27ECBBF1E0FBBFEBBF83
:10006000E5BF8DE0A2E0BB27ED938A95E9F780E03C
:1000700094E0A0E6ED930197E9F7EFE5EDBFE4E04A
:10008000EEBFC0E6D1E00C944500A0E0B0E00E94D5
:100090004A00FFCFBA93AA93E881F9813097A9F477
:1000A0002FD0EFE336D0E6E034D0EBE532D0EFE40A
:1000B00030D0E6E62ED0EDE62CD0EDE72AD0E7E012
:1000C00028D0EFE726D0EFE614C01AD0EFE621D013
:1000D000EFE71FD0E7E01DD0EDE71BD0EDE619D02C
:1000E000E6E617D0EFE415D0EBE513D0E6E011D04B
:1000F000EFE3E5BBA4EFB1E00E948E0022960895E5
:10010000EFEFE4BBEFE0E1BB889A899A8A9A8B9A79
:100110000895E5BBA4EFB1E00C948E00109639F081
:1001200080ED97E00197F1F7A8951197C9F7089529
:00000001FF
