:060000000C9433000C9487
:1000060000000C9400000C9400000C9400000C946A
:1000160000000C9400000C9400000C9400000C945A
:1000260000000C9400000C9400000C9400000C944A
:1000360000000C9400000C9400000C9400000C943A
:1000460000000C9400000C9400000C9400003F0685
:100056005B4F666D7D077F6F0A00600154000000EC
:10006600F894EE27ECBBF1E0FBBFEBBFE5BF8DE0FC
:10007600A2E0BB27ED938A95E9F780E094E0A0E63D
:10008600ED930197E9F7EEE5F0E0859195910097FC
:1000960061F0A591B59105901590BF01F00105900D
:1000A6000D920197E1F7FB01F0CFEFE5EDBFE4E03C
:1000B600EEBFC0E6D1E00C946000AAE9B9E989E98F
:1000C6009EE30E946700FFCF0E9456022697E0E05B
:1000D600E883E983EA83EB83EC83ED830E946D0278
:1000E60000E010E020E030E040E050E0EABBEFEF57
:1000F600E4BBE0E0E1BB09B31127AAE0A09FF00151
:10010600A19FF00D9F01AC85BD858E859F85E0E0A2
:10011600F0E060E271E40E94E501EC87FD876E87FE
:100126007F87002402160306F0F5A2E3B0E00E94E2
:10013600F00089013CD0EE83FF833FD0AF013DD074
:10014600EA87FB87D801EAE0F0E00E9440028F01CF
:10015600088719878A9AA0E6B1E0A40FB51FEC912B
:10016600E05832D08A98899AEA85FB8532D08998F8
:10017600889AE885F9852DD088988B9AEE81FF813B
:1001860028D08B98EC85FD856E857F85D9018827DB
:1001960099270E945D020E9460020E9493010E94BC
:1001A60027019F01BECF0E94740260960895D80170
:1001B600EAE0F0E00E9453020895D801EAE0F0E098
:1001C6000E9440028F01F3CFE5BBA1E0B0E00C94A2
:1001D600F000E05AFE4FE081F7CF109639F080ED3F
:1001E60097E00197F1F7A8951197C9F70895552358
:1001F60042F4503811F4E0FF04C03196691F791FAC
:100206006BF050E8572711F45F93CAC05F3F31F097
:10021600660F000C57956795752F08955F9300201C
:100226000AF0CAC0C3C050E8192E1522880F991FBC
:100236009527550F879550E8072E0522660F771FDD
:100246007527550F67950895689401C0E8945F93E4
:10025600F2DF703818F07F3F08F4A2C056E1571B52
:10026600AAF4519558300EF4593030F0EFEFFFEF05
:100276006FEF7FE777F91AC077275523B9F0EE0FAE
:10028600FF1F661F771F5A95D1F710C07727583082
:1002960028F0EF2FF62F672F5850F9CF552331F05E
:1002A60076956795F795E7955A95D1F700200AF464
:1002B600D7D05F910895689401C0E8943097604064
:1002C6007040B1F0002426F0772312F40094C8D0D1
:1002D600172E7EE1112032F07A95EE0FFF1F661F72
:1002E600111CF9CFEF2FF62F612D5F938ADF5F91F7
:1002F60008954F93AF01FD01DA01AB01BC01CA01BC
:10030600402D012C142E4F910895EA0FFB1F681FF4
:100316000895E095F0956095EF5FFF4F6F4F089554
:100326005F9381DF903849F150E81526703821F146
:10033600572F591B2BF112F4DCDFFACF583118F086
:10034600AA27BB278827583028F0AB2FB82F882735
:100356005850F9CF552329F08695B795A7955A9504
:10036600D9F7502D512572F0D0DF38F46795F795FF
:10037600E795739513F420C0BCDF43DF5F910895C2
:10038600D8F7FBCFEA1BFB0B680B51F010F4009477
:10039600C0DF662392F3EE0FFF1F661F7A95CBF739
:1003A600EE27FF27662777275F910895EFEFFFEF88
:1003B6006FE77FEF5F910895EFEFFFEF6FE77FE75E
:1003C6005F9108955F932FDF703851F3903841F3B2
:1003D60001240894791F23F41CF300203AF3ECCF90
:1003E6000F921F932F933F934F93112722279927FD
:1003F600689FA0018F9F302D410D591F6B9F300DB7
:10040600411D591F8E9F27D0BF9F25D06A9F23D09D
:10041600BE9F1DD0AF9F1BD0AE9F110D291F391F48
:10042600491F591FE32FF42F652F522F4F913F91EC
:100436002F911F910F9066232AF0550FEE1FFF1F75
:10044600661F02C073954BF2D2DE5F910895100DC0
:10045600211D391F02C0200D311D491F591F089546
:10046600F09560957095E195FF4F6F4F7F4F08951A
:100476008B2F880F880B982F08950024112490E164
:10048600AA0FBB1F001C111C0E1A1F0A18F40E0E11
:100496001F1E01C0A1609A9599F7FD01D00108952C
:1004A600ECDFFD0108959A938A93BA93AA9308956F
:1004B600689401C0E89401D001DF182E862F612DC3
:1004C600192E972F712D1B2EBF2FF12D1A2EAE2F01
:1004D600E12D08955A934A933A932A931A930A93CD
:1004E60008955D814C813B812A8119810881089597
:00000001FF
