:0C0000000C945E000C9400000C948B002B
:10000C000C9400000C9400000C9400000C94000064
:10001C000C9400000C9400000C9400000C94000054
:10002C000C9400000C9400000C9400000C94000044
:10003C000C9400000C9400000C9400000C94000034
:10004C000C9400000C94000057656C636F6D652078
:10005C00746F20746865206F6E6C696E65206C61BE
:10006C006220636C61737365732064756520746FB3
:10007C0020436F726F6E6120646973656173652EC6
:10008C0000004768617A616C65205A65687461622A
:10009C000039363239313633000080C00F00600130
:1000AC008E0008006F019D0002007701A600000081
:1000BC00F894EE27ECBBF1E0FBBFEBBFE5BF8DE0A6
:1000CC00A2E0BB27ED938A95E9F780E094E0A0E6E7
:1000DC00ED930197E9F7E8EAF0E0859195910097A7
:1000EC0061F0A591B59105901590BF01F0010590B7
:1000FC000D920197E1F7FB01F0CFEFE5EDBFE4E0E6
:10010C00EEBFC0E6D1E00C948C00189505D0789425
:10011C000E94C600FDCFFFCFEFEFEABBE0E0EBBBE8
:10012C00E0EFE7BBE0E0E8BBE4BBE5BBE1BBE2BB77
:10013C00E3BFE2BFECBFEFBDEEBDEDBDECBDE7BD77
:10014C00E6BDEBBDEABDE9BDE8BDE2BDE5BDE4BD84
:10015C00E3BDE9BFEBB7E068EBBFE8E0E5BFE0E08B
:10016C00E4BFE0E8EABFE0E0EAB9E0E8E8B9E0E0E3
:10017C00E0BFE6B9EDB9E6BFA0E10E9454010895D5
:10018C00E99789E3A0E0B0E0E4E5F0E00E94AF017C
:10019C000E94A10100E010E020E030E040E050E0DF
:1001AC00A0E17CD00E94820100E010E00833E0E086
:1001BC001E0718F50E948201F8017096AF01D80154
:1001CC005096D89730F0E8E3F0E0E01BF10B319754
:1001DC00AF0198012417350748F4DE011696A20FDB
:1001EC00B31FAC9147D02F5F3F4FF4CFA8E7B0E0DF
:1001FC000E9497010F5F1F4FD9CF0E94A801EF9665
:10020C000895AA93EBB3EF70AE2FE881E07FEA2B51
:10021C00EBBB8DE08A95F1F7DA9A8DE08A95F1F7D0
:10022C00DA988DE08A95F1F765C0AA93A881E9DF89
:10023C00E881E295E883A881E4DF85E88A95F1F707
:10024C0059C0AA93E881F0E0E958FE4FE081A981FA
:10025C00AE0FEBDF5980488022960895A2E00E94F1
:10026C008901ACE0E2DFA1E00E948901E0E04E2EC2
:10027C005E2E0895AA93A881AA3011F0571440F06D
:10028C00E0E0EA934394A42DDCDFA881AA3091F13D
:10029C005394D89AA881C9DFD8982CC0AA93EAB3F2
:1002AC00E06FEABBD29AD09AD19ADA98D898D998BA
:1002BC007880E881E058E0937901E881E054E0939C
:1002CC007A01A4E1B0E00E9497010E948F010E9484
:1002DC008F010E948F01A0E294DF88EC90E00197DF
:1002EC00F1F7A8E2A2DFA4E0A0DFA5E89EDFA6E07C
:1002FC009CDFB4DF219608950E943401E0E0EA937C
:10030C00A0E00C9427010E941B01A3E0B0E00C9428
:10031C009701A0E30E94070188EC90E00197F1F7A8
:10032C000895109639F080ED97E00197F1F7A895B4
:10033C001197C9F708955A934A933A932A931A93AB
:10034C000A9308955D814C813B812A811981088132
:10035C000895AC0FBD1F05900D928A95E1F7089595
:00000001FF
