:020000000C945E
:10000200A2000C9400000C94CF000C9400000C94FD
:1000120000000C9400000C9400000C9400000C945E
:1000220000000C9400000C9400000C9400000C944E
:1000320000000C9400000C9400000C9400000C943E
:1000420000000C9400000C9400000C9400000C942E
:100052000000303132333435363738394142434487
:10006200454657656C636F6D6520746F20746865D3
:10007200206F6E6C696E65206C616220636C6173C7
:100082007365732064756520746F20436F726F6EA1
:100092006120646973656173652E00004768617A47
:1000A200616C65205A656874616200393632393193
:1000B20036330053706565643F3F2830302D35304C
:1000C20072290045450054696D653A3F3F2830303A
:1000D2002D39397329005765696768743F3F2830A5
:1000E200302D393946290054656D703F3F28323032
:1000F2002D383043290080C01000C30154000F0086
:1001020060019E0008006F01AD0010007701B5008C
:1001120003008701C50010008A01C80003009A018C
:10012200C50011009D01D8000300AE01C5000F00FB
:10013200B101E9000300C001C5000200D501F800C9
:100142000000F894EE27ECBBF1E0FBBFEBBFE5BF8C
:100152008DE0A2E0BB27ED938A95E9F780E094E079
:10016200A0E6ED930197E9F7EAEFF0E0859195912A
:10017200009761F0A591B59105901590BF01F0012E
:1001820005900D920197E1F7FB01F0CFEFE5EDBF8E
:10019200E4E0EEBFC0E6D1E00C94F0000A921A92BD
:1001A200FA926A937A938A939A93AA93BA93EA9366
:1001B200FA93EFB7EA93EFE0E7BBE0EFE8BB0E9408
:1001C2009701E991EFBFF991E991B991A9919991BB
:1001D200899179916991F99019900990189507D0B0
:1001E200A0E10E9465020E942C01FDCFFFCFEFEF3C
:1001F200EABBE0E0EBBBE0EFE7BBE0E0E8BBE4BB7F
:10020200E5BBE1BBE2BBE3BFE2BFECBFEFBDEEBDCE
:10021200EDBDECBDE7BDE6BDEBBDEABDE9BDE8BDA8
:10022200E2BDE5BDE4BDE3BDE9BFEBB7E068EBBF0E
:10023200E8E0E5BFE0E0E4BFE0E8EABFE0E0EAB919
:10024200E0E8E8B9E0E0E0BFE6B9EDB9E6BFA0E179
:100252000E94650208951A930A930E949302A7E7E7
:10026200B1E00E949A02153311F4003321F41633DF
:1002720010F40A3338F00E943302A7E8B1E00E947A
:10028200A80205C0A8EEB3E00E94E20201C0E5CFD9
:100292000E949302AAE8B1E00E949A021A3310F473
:1002A2000A3338F00E943302AAE9B1E00E94A802A0
:1002B20005C0A8EEB3E00E94E20201C0E9CF0E94AD
:1002C2009302ADE9B1E00E949A021A3310F40A33A4
:1002D20038F00E943302AEEAB1E00E94A80205C0E3
:1002E200A0EDB7E00E94E20201C0E9CF0E949302B2
:1002F200A1EBB1E00E949A02183311F4003331F4F9
:10030200123320F0193310F40A3338F00E9433020A
:10031200A0ECB1E00E94A80205C0A0EDB7E00E94E7
:10032200E20201C0E3CF099119910895E0EFE7BB22
:10033200EFEFE8BBE8B3EF700E94AE02A091D301E9
:10034200AF30C1F70E94B402A091D301AF30D1F314
:100352000E94B402A091D301AF30A1F3EFEE0E944C
:10036200AE02A091D301AF3021F0E0E0E093D401DE
:1003720022C0EFED0E94AE02A091D301AF3021F076
:10038200E1E0E093D40117C0EFEB0E94AE02A0912E
:10039200D301AF3021F0E2E0E093D4010CC0EFE7EB
:1003A2000E94AE02A091D301AF3021F0E3E0E093CE
:1003B200D40101C0D3CFA091D301AE3041F40E9449
:1003C200BD02AC915BD00E94BD02EC910895A09158
:1003D200D301AD3039F40E94C702A1810E94D1023B
:1003E200E1810895A091D301AB3039F40E94C70294
:1003F200A2810E94D102E28108950E94C702A381D4
:100402000E94D102E38108950895AA93EBB3EF709D
:10041200AE2FE881E07FEA2BEBBB8DE08A95F1F706
:10042200DA9A8DE08A95F1F7DA988DE08A95F1F7FC
:1004320077C0AA93A881E9DFE881E295E883A881E1
:10044200E4DF85E88A95F1F76BC0AA93E881F0E0D2
:10045200EB52FE4FE081A981AE0FEBDF598048805D
:1004620022960895A2E00E94D402ACE0E2DFA1E06D
:100472000E94D402E0E04E2E5E2E0895AA93A88137
:10048200AA3011F0571448F0E0E0EA934394A42D07
:10049200DCDFA881AA3009F443C05394D89AA8811A
:1004A200C8DFD8983DC0BA93AA931A93A981BA819A
:1004B200ED91A983BA831E2FE03019F0A12FDEDF60
:1004C200F5CF188123960895AA93EAB3E06FEABBA9
:1004D200D29AD09AD19ADA98D898D9987880E88125
:1004E200E058E093D701E881E054E093D801A4E119
:1004F200B0E00E94E2020E94DA020E94DA020E9446
:10050200DA02A0E282DF88EC90E00197F1F7A8E23C
:1005120090DFA4E08EDFA5E88CDFA6E08ADFA2DF11
:10052200219608950E943302E0E0EA93A0E00C9441
:1005320026020E945402E0E0EA93A1E00E94260211
:100542000E9497011E2F0E9497010E2F08950E946C
:100552005402A0EDB7E00C94E202E8BBE6B3EF7000
:10056200E093D3010895A4E1B0E00E94E202E6B371
:10057200EF70E093D3010895E091D401A3ECB1E0D0
:10058200F0E00E94EC02AE0FBF1F0895E091D4018B
:10059200A3ECB1E0F0E00E94EC02EA0FFB1F089529
:1005A2000E943F02F3CF0E941A02A3E0B0E00C9433
:1005B200E202A0E30E94060288EC90E00197F1F7C4
:1005C2000895109639F080ED97E00197F1F7A8951C
:1005D2001197C9F70895EE0FFF1FEE0FFF1F089541
:00000001FF
