:0A0000000C943A010C9400000C94DB
:10000A0000000C9400000C9400000C9400000C9466
:10001A0000000C9400000C9400000C9400000C9456
:10002A0000000C9400000C9400000C9400000C9446
:10003A0000000C9400000C9400000C9400000C9436
:10004A0000000C9400000C940000FF00C100DD00C9
:10005A00D500D500C500FF00FF00FF00DD00CD0080
:10006A00D500D900DD00FF00FF00FF00FF00C1003E
:10007A00DD00D500D500C500FF00FF00FF00DD0050
:10008A00CD00D500D900DD00FF00FF00FF00FF0012
:10009A00C100DD00D500D500C500FF00FF00FF004C
:1000AA00DD00CD00D500D900DD00DD00FF00FF0036
:1000BA00FF00C100DD00D500D500C500FF00FF002C
:1000CA00FF00DD00CD00D500D900D900DD00FF001A
:1000DA00FF00FF00C100DD00D500D500C500FF000C
:1000EA00FF00FF00DD00CD00D500D500D900DD00FE
:1000FA00FF00FF00FF00C100DD00D500D500C500EC
:10010A00FF00FF00FF00DD00CD00CD00D500D900C3
:10011A00DD00FF00FF00FF00C100DD00D500D500B3
:10012A00C500FF00FF00FF00DD00DD00CD00D500A7
:10013A00D900DD00FF00FF00FF00C100DD00D5008F
:10014A00D500C500FF00FF00FF00FF00DD00CD0065
:10015A00D500D900DD00FF00FF00FF00C100DD006F
:10016A00D500D500C500FF00FF00FF00FF00DD003D
:10017A00CD00D500D900DD00FF00FF00FF00C1005F
:10018A00DD00D500D500C500FF00FF00FF00FF001D
:10019A00DD00CD00D500D900DD00FF00FF00FF0023
:1001AA00C100DD00D500D500C500C500FF00FF0075
:1001BA00FF00DD00CD00D500D900DD00FF00FF0003
:1001CA00FF00C100DD00D500D500D500C500FF0045
:1001DA00FF00FF00DD00CD00D500D900DD00FF00E3
:1001EA00FF00FF00C100DD00D500D500D500C50025
:1001FA00FF00FF00FF00DD00CD00D500D900DD00C3
:10020A00FF00FF00FF00C100DD00DD00D500D500C2
:10021A00C500FF00FF00FF00DD00CD00D500D900BA
:10022A00DD00FF00FF00FF00C100C100DD00D500B6
:10023A00D500C500FF00FF00FF00DD00CD00D5009E
:10024A00D900DD00FF00FF00FF00FF00C100DD0054
:10025A00D500D500C500FF00FF00FF00DD00CD007E
:10026A00D500D900DD00FF00FF00F894EE27ECBBB3
:10027A00F1E0FBBFEBBFE5BF8DE0A2E0BB27ED934A
:10028A008A95E9F780E094E0A0E6ED930197E9F713
:10029A00EFE5EDBFE4E0EEBFC0E6D1E00C94550116
:1002AA0004D00E948301FFCFFFCFEFEFEABBE0E06B
:1002BA00EBBBEFEFE7BBE0E0E8BBE4BBE5BBE1BBD0
:1002CA00E2BBE3BFE2BFECBFEFBDEEBDEDBDECBDEF
:1002DA00E7BDE6BDEBBDEABDE9BDE8BDE2BDE5BDF2
:1002EA00E4BDE3BDE9BFE5BFE4BFEAB9E0E8E8B9C8
:1002FA00E0E0E0BFE6B9EDB9E6BF08952497E0E093
:10030A00E883E983EA83EB830E94070200E010E0B6
:10031A0020E030E048E050E0E0E0EE83EF83AE8199
:10032A00BF81A639E0E0BE0774F5E0E8E2BBF80158
:10033A00A4E5B0E0EE0FFF1FEA0FFB1F3BD0A3E0DE
:10034A00B0E00E94E701E0E0E2BBF801EE0FFF1F18
:10035A00EC59FF4F2FD00F5F1F4F4017510711F471
:10036A0008851985F9013196A7E0B0E00E94FD01E0
:10037A009F01A3E0B0E00E94E701EE81FF81319680
:10038A00EE83FF83CCCFE8EFF0E0E417F50751F4F2
:10039A0048E050E0E0E0E887E98700E010E020E08C
:1003AA0030E007C0405F5F4FE885F9857096E887BF
:1003BA00F987B2CF049008BAE22FA1E00E94F501B2
:1003CA00EBBB0895109639F080ED97E00197F1F7AD
:1003DA00A8951197C9F70895F195E195F040089508
:1003EA00EE230E2EEA2F19F0EE0F0A94E9F708957C
:1003FA00E894F7FF02C0F0DF6894EA23FB230EF4C7
:10040A00EBDF08955A934A933A932A931A930A93DD
:10041A0008955D814C813B812A8119810881089563
:00000001FF
