:040000000C94380024
:100004000C9400000C9400000C9400000C9400006C
:100014000C9400000C9400000C9400000C9400005C
:100024000C9400000C9400000C9400000C9400004C
:100034000C9400000C9400000C9400000C9400003C
:100044000C9400000C9400000C9400000C9400002C
:100054003F065B4F666D7D077F6F00000000000068
:10006400000000000A00600154000000F894EE272C
:10007400ECBBF1E0FBBFEBBFE5BF8DE0A2E0BB272B
:10008400ED938A95E9F780E094E0A0E6ED9301977B
:10009400E9F7E8E6F0E085919591009761F0A59184
:1000A400B59105901590BF01F00105900D9201974F
:1000B400E1F7FB01F0CFEFE5EDBFE4E0EEBFC0E612
:1000C400D1E00C9479011A930A93EFEFE7BB00E0B7
:1000D40010E00430E0E01E0748F4EFEFE8BB0FD176
:1000E400E0E0E8BB0CD10F5F1F4FF3CF36C00E9496
:1000F400270221E030E0EFEFE7BB00E010E004313D
:10010400E0E01E07A0F428BBA6E9B0E00E94F701D6
:10011400A2E0A29FF001A39FF00D9F012138E0E02F
:100124003E0710F021E030E00F5F1F4FE8CF0E9440
:100134002E02249608951A930A9300E010E0E0E05A
:10014400EABBEFEFE7BB083BEBE01E0730F4E9B393
:10015400E8BB0F5F1F4FD7D0F6CF099119910895CF
:10016400EFEFE4BBEFE0E1BB889A899A8A9A8B9A15
:10017400EFE6E5BBC4D0EFE7E5BBC1D0E7E0E5BB04
:10018400BED0EDE7E5BBBBD0EDE6E5BBB8D0E6E617
:10019400E5BBB5D0EFE4E5BBB2D0EBE5E5BBAFD052
:1001A400E6E0E5BBACD0EFE3E5BBA9D00895269724
:1001B400E0E0E883E983EA83EB83EC83ED83A7D073
:1001C40000240216030600F5B9D0EE83FF83C1D0E4
:1001D400AF01BFD0EA87FB87C8D008871987CCD086
:1001E400E058E5BB90D08A98899ACDD08998889AAE
:1001F400E885F985CFD088988B9AEE81FF81CAD0A3
:100204008B9822503040DCCF0E942C022C9608950B
:100214002A978AE0A0E0B0E0EEE5F0E00E94330225
:1002240076D000240216030608F05DC087D0EA8762
:10023400FB878FD0AF018DD0EE87FF8796D00C87D8
:100244001D879AD0E5BB5FD08A98899AEE85FF8591
:10025400A1D08998889AEC85FD859CD088988B9A42
:1002640092D08B9822503040879910C098D0ABD050
:10027400E885F985A8EEB3E00E940102B1D02A1BFB
:100284003B0BE0E0EE87EF87EC87ED8786990DC0A6
:1002940086D00E942202A4D0E4E60E940902A0D0E3
:1002A4002A1B3B0BE0E0EE87EF8785990EC0D9014E
:1002B400EAE0F0E088D0A885B985EAE00E94090266
:1002C4008FD02A1B3B0B40E050E084990BC0D9012E
:1002D400EAE0F0E00E94220283D02A1B3B0BE0E01C
:1002E400EA87EB879ECF0E942C0260960895EBDE8E
:1002F400FEDE36DF20DF5BDF8BDFFCCFFFCFA4EF3A
:10030400B1E00C94F701A1E0B0E00C94F7010E9475
:10031400250200E010E020E030E040E050E0E0E0C2
:10032400EABBEFEFE4BBE0E0E1BB09B31127AAE0CD
:10033400A09FF001A19FF00D9F010895A2E3B0E0FA
:100344000E94F7018901D801EAE0F0E00E9422024C
:100354000895D801EAE0F0E00E940F028F01D8016D
:10036400EAE0F0E00E9422020895D801EAE0F0E019
:100374000E940F028F0108958A9AA0E6B1E0A40FAB
:10038400B51FEC910895EA85FB85E05AFE4FE081A4
:10039400E5BBB9CFE05AFE4FE081E5BBB4CFD9014C
:1003A400EAE0F0E00E940F02EE83FF83AE81BF819A
:1003B400EAE0F0E00E940F02EE83FF83AE81BF818A
:1003C400EAE0F0E008950E940F02EE83FF83AE811D
:1003D400BF81EAE0F0E00E942202E887F9870895ED
:1003E400E887F987A885B9850895109639F080EDD6
:1003F40097E00197F1F7A8951197C9F70895FA9F27
:10040400F02DEB9FF00DEA9FE02DF10D08956E2F76
:100414006A9FF0016B9FF00D08950024112490E170
:10042400AA0FBB1F001C111C0E1A1F0A18F40E0E73
:100434001F1E01C0A1609A9599F7FD01D00108958E
:10044400ECDFFD0108955A934A933A932A931A9341
:100454000A9308955D814C813B812A811981088129
:100464000895AC0FBD1F05900D928A95E1F708958C
:00000001FF
