:080000000C941F010C94000098
:100008000C9400000C9400000C9400000C94000068
:100018000C9400000C9400000C9400000C94000058
:100028000C9400000C944C010C9400000C947E017C
:100038000C9400000C9400000C9400000C94000038
:100048000C9400000C9400000C9400001027E803A6
:1000580064000A0001000010000110000100000007
:100068000000000000000000000000000000000088
:100078000000000000000000000000000000000078
:100088000000000000000000000000000000000068
:100098000000000000000000000000000000000058
:1000A8000000000000000000000000000000000048
:1000B8000000000000000000000000000000000038
:1000C8000000000000000000000000000000000028
:1000D8000000000000000000706172742032206986
:1000E800732072756E6E696E67210D00706172748F
:1000F80020332069732072756E6E696E67210D005A
:100108000D54783A000D52783A20446174612069A0
:1001180073206120696E746567657220616E642062
:1001280031302A646174613D002564004C434420E9
:1001380064656C657465000D4D6963726F204C6170
:100148006220696E2050616E64656D69630D000DF3
:100158004E6F2066756E6374696F6E20646566699C
:100168006E6564210D0070617274203420697320FB
:1001780072756E6E696E67210D000D4672616D6550
:10018800206D757374206265203520696E7465670B
:1001980065720D000D4C656E677468206F66206689
:1001A80072616D65206E6F7420636F72726563741F
:1001B8000D00094672616D6520697320636F727264
:1001C8006563740D000080C001002D4E414E00494A
:1001D8004E460000010002006600060004006800A8
:1001E80014006001E00014007401F40005008801A7
:1001F800080124008D010D010200B101F2000B007D
:10020800B30134011800BE013F011700D6015701A0
:100218001400ED016E011A00010282011E001B028A
:100228009C0113003902BA0102005C02CE010100F0
:100238006002D0010000F894EE27ECBBF1E0FBBFB0
:10024800EBBFE5BF8DE0A2E0BB27ED938A95E9F708
:1002580080E094E0A0E6ED930197E9F7ECEDF1E09A
:1002680085919591009761F0A591B59105901590AC
:10027800BF01F00105900D920197E1F7FB01F0CF66
:10028800EFE5EDBFE4E0EEBFC0E6D1E00C949501E8
:10029800EA93FA93EFB7EA931A930A931BB10CB156
:1002A800E12FEC7189F4E52D5394F0E0E45BFD4F08
:1002B8000083E8E0E51509F455247394E8E0E715B0
:1002C80019F47724689420F80991199125C01A9394
:1002D8007720F1F3E42D4394F0E0E45BFD4F1081C7
:1002E800E8E0E41509F44424F8947A947894E12F2A
:1002F80019910895EA93FA93EFB7EA93882061F089
:100308008A94E92D9394F0E0EC5AFD4FE081ECB922
:10031800E8E0E91509F49924E991EFBFF991E99129
:1003280018951AD00E944A060E944A060E944F0653
:100338000E944D020E944A060E9454060E944F06DF
:100348000E948F020E9454060E9454060E944F0683
:100358000E943903E7CFFFCFE0E0EABBEBBBE7BB86
:10036800E8BBEFEFE4BBE0E0E5BBE1BBE2BBE3BF2A
:10037800E2BFECBFEFBDEEBDEDBDECBDE7BDE6BD38
:10038800EBBDEABDE9BDE8BDE2BDE5BDE4BDE3BD49
:10039800E9BFE5BFE4BFE0E8E8B9E0E0E0BFE6B9FF
:1003A800EDB9E6BFA0E10E94420408950E942A0820
:1003B80024970E945906E0E0EB831A930A9300E021
:1003C80010E0EE81FF8168857985A0E1B0E080E0EA
:1003D80090E00E94A707A0E0B2E18AE790E00E94BF
:1003E800E907E150F040604070400E943707EA8317
:1003F800FB836C837D830E9400078F01AC85BD85DC
:10040800109721F4AA85BB85109709F001C03DC05B
:10041800AA85BB85119721F4AC85BD85119709F094
:100428000BC0E0E0EBB9E8E10E945E0614F409B9FC
:1004380002C00E94650629C0AC85BD85119721F4CC
:10044800AA85BB85129709F00CC0E0E0EBB9E8E992
:100458000E945E0614F409B902C00E9465067894E9
:1004680014C0AA85BB85129721F4AC85BD85129767
:1004780009F00BC0E0E0EBB9E8ED0E945E0614F469
:1004880009B902C00E9465067894198108812E96E0
:1004980008950E942A08E79787E3A0E0B0E0EEE617
:1004A800F0E00E943D080E94310810E020E030E0B2
:1004B8000E9472060E947206DE01A15CBF4F0D9079
:1004C8001D908D919C91D00171DFA0E6B1E00E9452
:1004D8007B040E947B06E8E2EC832F5F3F4F1D30D0
:1004E80059F0F901DE011496EA0FFB1F10830E94F0
:1004F8007B062F5F3F4FF3CFDE011496A20FB31F89
:10050800E9E2EC93DE0114960E947B040E9438080D
:10051800EF96249608950E942A0823970E94590668
:100528000E94310810E020E030E0ED85FE85FA9366
:10053800EA93ED85FE85FA93EA93AB85BC858D85B4
:100548009E8534DFA4E7B1E00E947B040E946B0122
:100558001E2FF0E0E033A0E0FA0719F420E030E0C5
:1005680041C0E133A0E0FA0719F421E030E03AC0D5
:10057800E233A0E0FA0719F422E030E033C0E333B5
:10058800A0E0FA0719F423E030E02CC0E433A0E03F
:10059800FA0719F424E030E025C0E533A0E0FA07B3
:1005A80019F425E030E01EC0E633A0E0FA0719F49C
:1005B80026E030E017C0E733A0E0FA0719F427E097
:1005C80030E010C0E833A0E0FA0719F428E030E082
:1005D80009C0E933A0E0FA0719F429E030E002C0C5
:1005E80024E630E0332322F02A30E0E03E070CF026
:1005F80029C0A8E8B1E00E947B04A12F0E947404DE
:10060800ADE8B1E00E947B04F901AAE0B0E00E94E5
:10061800A2079F01FE013496FA93EA93E1E3F1E021
:10062800FA93EA93F9010E9475070E94250884E06D
:100638000E94FD052896DE0114960E947B04A1EB1A
:10064800B1E00DC0143421F4A3EBB1E00CD109C022
:10065800183419F4AEEBB1E002C0A6EDB1E00E9487
:100668007B040E9438082F9608950E942A08E9976B
:1006780089E3A0E0B0E0E6EAF0E00E943D080E94CD
:100688002F0810E020E030E040E050E00E948106B2
:100698000E948106DE01AD5BBF4F0D901D908D91CC
:1006A8009C91D00183DEADEEB1E00E947B040E94F4
:1006B8008A061D3059F0F901DE011896EA0FFB1F72
:1006C80010830E948A062F5F3F4FF3CFE1E0F0E0EE
:1006D800EE83FF830E949006AC91A93209F452C0C0
:1006E8000E949006EC91F0E0E033A0E0FA0719F4DC
:1006F80040E050E041C0E133A0E0FA0719F441E0DE
:1007080050E03AC0E233A0E0FA0719F442E050E0C2
:1007180033C0E333A0E0FA0719F443E050E02CC0FB
:10072800E433A0E0FA0719F444E050E025C0E533CB
:10073800A0E0FA0719F445E050E01EC0E633A0E057
:10074800FA0719F446E050E017C0E733A0E0FA07CB
:1007580019F447E050E010C0E833A0E0FA0719F4B4
:1007680048E050E009C0E933A0E0FA0719F449E08D
:1007780050E002C044E650E0EE81FF813196EE83FE
:10078800FF83A8CF4A30E0E05E072CF0A1E0B2E09A
:100798000E947B0411C0E7E0F0E0E217F30729F0BC
:1007A800ABE1B2E00E947B0407C0A9E3B2E00E947B
:1007B8007B04DE01189657D00E943608EF962896DB
:1007C8000895AA93E5B3EF70AE2FE881E07FEA2B96
:1007D800E5BB8DE08A95F1F7AA9A8DE08A95F1F745
:1007E800AA988DE08A95F1F70C947904AA93A881C8
:1007F800E8DFE881E295E883A881E3DF85E88A9568
:10080800F1F70C947904AA93E881F0E0E45AFD4FDB
:10081800E081A981AE0FEADFB980A8802296089509
:10082800A2E00E949706ACE0E1DFA1E00E949706F3
:10083800E0E0AE2EBE2E0895AA93A881AA3011F04A
:10084800BD1450F0E0E0EA93A394AA2DDCDFA88160
:10085800AA3011F40C947904B394A89AA881C6DF3D
:10086800A8980C947904BA93AA931A930E949D06A7
:1008780019F0A12FE1DFFACF0C948604AA93E4B310
:10088800E06FE4BBA29AA09AA19AAA98A898A998FE
:10089800D880E881E058E0935E02E881E054E09374
:1008A8005F02A4E1B0E00E94D9060E94A5060E945A
:1008B800A5060E94A506A0E284DF88EC90E00197D7
:1008C800F1F7A8E293DFA4E091DFA5E88FDFA6E0C7
:1008D8008DDFA6DF0C9479045F9BFECFECB1089501
:1008E800AA935D9BFECFE881ECB921960895BA934F
:1008F800AA931A930E949D0619F0A12FF1DFFACF4F
:10090800AAE0EEDF188123960895BA93AA931A9362
:100918000A93AA81BB8112960E941D08309759F14B
:10092800AA81BB8114960E941D088F01309761F03F
:100938000230E0E01E0798F0F80131978F01AA8194
:10094800BB811496ED93FC93AA81BB811296ED911D
:10095800FD913196FE93EE933197AC81A083AA81E5
:10096800BB810E941D08FF232AF0ED91FD9131966D
:10097800FE93EE9306C0AA81BB81EFEFFFEFED93E4
:10098800FC931981088125960895BA93AA9326970E
:100998000E942F0810E0AC85BD85E0E0F0E0ED9303
:1009A800FC93EA89FB893196EA8BFB8B3197E491BA
:1009B8002E2FE03009F415C1E12FE03039F425324B
:1009C80011F411E002C00E94AD060AC1E130A9F499
:1009D800253219F40E94AD0602C112E040E000E0A1
:1009E8002D3211F401E0FCC02B3211F44BE2F8C0B7
:1009F800203211F440E2F4C002C0E23039F450E091
:100A080013E0203311F40068EBC003C0E33009F0B1
:100A1800E7C0203310F02A3308F007C0AAE05A9F35
:100A2800502DE22FE0535E0FDBC0E22FE33649F48E
:100A38000E94B406E889F989A481AA930E94BA069B
:100A4800CEC0E33741F40E94B4060E94C0060E945B
:100A580031061E2F0AC0E03761F40E94B4060E94D6
:100A6800C0060E943D061E2F086002600F7730E026
:100A780034C0E43611F0E93611F4046002C0E537F9
:100A880031F4E4E5F0E0EE83FF8315E00CC0E835CF
:100A980011F4086003C0E83709F0A1C0EEE5F0E002
:100AA800EE83FF8314E002FF14C00E94B4060E9484
:100AB800CA06AB85AA233AF4EA85FB850E94690732
:100AC800EA87FB874DE2403011F01F5F01C00B7FC2
:100AD80004C00E94B4060E94CA0600FD11C0151782
:100AE80078F407FF08C002FF04C00B7F242F1150C1
:100AF80001C020E301C020E20E94AD065150EFCFB3
:100B0800312F01FF17C03030A1F003FF06C0EE817E
:100B1800FF812591EE83FF8305C0AE81BF812D91B2
:100B2800AE83BF830E94AD06503009F0515031505A
:100B3800EACF4BC020E3EE81FF810E942108E887BD
:100B4800F987EE81FF813296EE83FF83E885F98588
:100B5800AA85BB85AE17BF0750F02F5FA885B9855A
:100B6800EA85FB85EA1BFB0BEA87FB87EFCF2A3375
:100B780028F003FF02C0295F01C0295D04FD1AC0E7
:100B8800213320F4A885B985119709F409C05317B2
:100B980010F000FF01C013C020E207FF0BC020E3E4
:100BA800006102FF07C00B7F4A930E94BA065030CB
:100BB80009F051500E94AD06503009F051503150A3
:100BC800A885B985129708F0B5CF00FF08C0503046
:100BD80031F05150E0E2EA930E94BA06F8CF10E0F3
:100BE800E0CEAC85BD850E941D080E94360864963B
:100BF8000895FF92F82E26970E9431080E94D20687
:100C0800309719F4EFEFFFEF23C0DE0116960E942C
:100C180065078D010E94D206EE83FF83E0E0E88736
:100C2800E987DE011A960E9465070E941D08FA935B
:100C3800EA931A930A93E9E8F4E0FA93EA93DE0157
:100C48001A96A3DE9F01AE81BF81E0E0EC93F90123
:100C58000E9438082A96FF900895BA93AA93A991FA
:100C6800B991EE27FF276D91662311F03196FBCFDE
:100C78000895BA93AA93AA27BB27E991F9910590F9
:100C8800002011F01196FBCFFD010895E1E0F0E09E
:100C9800FA93EA930895A0E8B5E280E090E0089519
:100CA800E2E0F0E0FA93EA930895E0E0E883E9836C
:100CB800EA830895EAB9E6E8E0BD0F3FE0E01E07E1
:100CC8000895D801EFEFF0E00E94EE07E9B9D801E6
:100CD800EFEFF0E00E94BF07E0BD0895FE01EF5B73
:100CE800FF4F0190F081E02DFA93EA9308950E9456
:100CF80070041E2FA12F0C947404FE01EB5BFF4FB0
:100D08000190F081E02DFA93EA9308950E946B0117
:100D18001E2FA12F0C947404EE81FF81DE0118961A
:100D2800AE0FBF1F08950E94FA03A3E0B0E00C9431
:100D3800D906A981BA81ED91A983BA831E2FE03023
:100D48000895A0E30E94E50388EC90E00197F1F78D
:100D580008952A93AD85BE85EF85F889099508958C
:100D6800E889F9893497E88BF98B0895AD85BE85B4
:100D7800EF85F88909950895A889B98914960E947C
:100D88001D08EE83FF83AE81BF810895A889B989C4
:100D980014960E941D08EA87FB870895DE011C96B9
:100DA8000E9465070E941D080895109639F080ED8D
:100DB80097E00197F1F7A8951197C9F7089550E8BA
:100DC800572711F45F936BC05F3F31F0660F000C3B
:100DD80057956795752F08955F9300200AF06BC0AB
:100DE80064C050E8072E0522660F771F7527550F38
:100DF80067950895689401C0E8945F93F2DF7038AE
:100E080018F07F3F08F44BC056E1571BAAF45195E0
:100E180058300EF4593030F0EFEFFFEF6FEF7FE707
:100E280077F91AC077275523B9F0EE0FFF1F661F11
:100E3800771F5A95D1F710C07727583028F0EF2F31
:100E4800F62F672F5850F9CF552331F076956795CF
:100E5800F795E7955A95D1F700200AF43AD05F91B3
:100E68000895689401C0E894309760407040B1F0EC
:100E7800002426F0772312F400942BD0172E7EE15D
:100E8800112032F07A95EE0FFF1F661F111CF9CF63
:100E9800EF2FF62F612D5F9392DF5F910895EE2774
:100EA800FF27662777275F910895EFEFFFEF6FE73A
:100EB8007FEF5F910895EFEFFFEF6FE77FE75F91B7
:100EC80008950024AF0DB01D0895F195E195F04007
:100ED8000895F09560957095E195FF4F6F4F7F4F9E
:100EE80008956F2F660F660B762F0895FA9FF02DE1
:100EF800EB9FF00DEA9FE02DF10D08957A9F702D7C
:100F08006B9F700DF89F700DE99F700D6A9F602DA3
:100F1800710DFB9F600D711DE89F600D711D882785
:100F2800FA9FF02D610D781FEB9FF00D611D781F62
:100F3800EA9FE02DF10D681F781F089559D0D6DF7C
:100F48000EF4C3DF089562D0D9DF0EF4C2DF08952E
:100F58000024112490E1AA0FBB1F001C111C0E1ABB
:100F68001F0A18F40E0E1F1E01C0A1609A9599F76A
:100F7800FD01D00108953CD0EBDF0EF4A6DF089503
:100F88003F934F935F93002411244427552730E261
:100F9800AA0FBB1F881F991F001C111C441F551F37
:100FA8000E1A1F0A460B570B28F40E0E1F1E461F5B
:100FB800571F01C0A1603A9559F7FD01BC01D00146
:100FC800CA015F914F913F91089520D0D9DF0EF467
:100FD80080DF0895E894B7FF04C0A095B0951196F6
:100FE8006894F7FD72DFB4DFFD010EF46EDF08953B
:100FF800E894F7FF02C069DF6894B7FF06C0A095C0
:10100800B095119600F8039400FA0895E89477FFD4
:1010180002C05FDF689497FF0BC00024A095B095CD
:10102800809590951196801D901D00F8039400FA04
:101038000895ED91FC91119708950590F491E02D94
:1010480008957A936A93FA93EA9308959A938A9300
:10105800BA93AA9308955A934A933A932A931A9360
:101068000A9308955D814C813B812A811981088109
:101078000895AC0FBD1F05900D928A95E1F708956C
:00000001FF
