:060000000C9490000C942A
:1000060000000C9400000C9400000C9400000C946A
:1000160000000C9400000C9400000C9400000C945A
:1000260000000C9400000C94BD000C9400000C948D
:1000360000000C9400000C9400000C9400000C943A
:1000460000000C9400000C9400000C940000102793
:10005600E80364000A00010000100001100001001E
:100066000000000000000D54783A000D52783A2046
:1000760044617461206973206120696E74656765E7
:100086007220616E642031302A646174613D0025FE
:1000960064000D004C43442064656C657465000D76
:1000A6004D6963726F204C616220696E2050616EEB
:1000B60064656D69630D000D4E6F2066756E637421
:1000C600696F6E20646566696E6564210D0080C087
:1000D60001002D4E414E00494E460000010002002F
:1000E6006600040004006800050060016C0024003E
:1000F600650171000200890198000B008B019A00CE
:1001060018009601A5001700AE01BD000200CD0142
:10011600D4000100D101D6000000F894EE27ECBB14
:10012600F1E0FBBFEBBFE5BF8DE0A2E0BB27ED939F
:100136008A95E9F780E094E0A0E6ED930197E9F768
:10014600E2EEF0E085919591009761F0A591B59169
:1001560005901590BF01F00105900D920197E1F70A
:10016600FB01F0CFEFE5EDBFE4E0EEBFC0E6D1E086
:100176000C948B01EA93FA93EFB7EA931A930A93D6
:100186001BB10CB1E12FEC7189F4E52D5394F0E02D
:10019600EB53FE4F0083E8E0E51509F4552473940C
:1001A600E8E0E71519F47724689420F80991199185
:1001B600E991EFBFF991E99118951A937720F1F338
:1001C600E42D4394F0E0EB53FE4F1081E8E0E41594
:1001D60009F44424F8947A947894E12F19910895B7
:1001E6002397E0E0E883E983EA830E949F0410E016
:1001F60020E030E0E2DF1E2FF0E0E033A0E0FA0777
:1002060019F420E030E041C0E133A0E0FA0719F428
:1002160021E030E03AC0E233A0E0FA0719F422E028
:1002260030E033C0E333A0E0FA0719F423E030E00E
:100236002CC0E433A0E0FA0719F424E030E025C02E
:10024600E533A0E0FA0719F425E030E01EC0E633F6
:10025600A0E0FA0719F426E030E017C0E733A0E083
:10026600FA0719F427E030E010C0E833A0E0FA07F7
:1002760019F428E030E009C0E933A0E0FA0719F4E0
:1002860029E030E002C024E630E0332322F02A30B1
:10029600E0E03E070CF029C0A0E6B1E00E944D0266
:1002A600A12F0E944602A5E6B1E00E944D02F90187
:1002B600AAE0B0E00E947D049F01FE013496FA9305
:1002C600EA93E5E9F0E0FA93EA93F9010E947004F3
:1002D6000E94980484E00E94CF032896DE011496BB
:1002E6000E944D02A9E8B1E00DC0143421F4ABE838
:1002F600B1E092D009C0183419F4A6E9B1E002C001
:10030600AEEAB1E00E944D020E94A6042796089527
:10031600E0E0EABBEBBBE7BBE8BBEFEFE4BBE0E04A
:10032600E5BBE1BBE2BBE3BFE2BFECBFEFBDEEBDA9
:10033600EDBDECBDE7BDE6BDEBBDEABDE9BDE8BD83
:10034600E2BDE5BDE4BDE3BDE9BFE5BFE4BFEBB992
:10035600E8E9EAB9E6E8E0BDE0E0E0BDE3E3E9B9F3
:10036600E0E8E8B9E0E0E0BFE6B9EDB9E6BFA0E154
:100376005DD0789435DFFECFFFCFAA93E5B3EF705B
:10038600AE2FE881E07FEA2BE5BB8DE08A95F1F799
:10039600AA9A8DE08A95F1F7AA988DE08A95F1F7E9
:1003A6000C944B02AA93A881E8DFE881E295E883E2
:1003B600A881E3DF85E88A95F1F76AC0AA93E88108
:1003C600F0E0E353FE4FE081A981AE0FEBDF6980D9
:1003D600988022960895A2E00E941C04ACE0E2DF19
:1003E600A1E00E941C04E0E09E2E6E2E0895AA93C2
:1003F600A881AA3011F0681448F0E0E0EA939394DB
:10040600A92DDCDFA881AA3009F442C06394A89A1A
:10041600A881C8DFA8983CC0BA93AA931A930E94F1
:10042600220419F0A12FE3DFFACF3FC0AA93E4B369
:10043600E06FE4BBA29AA09AA19AAA98A898A99854
:100446008880E881E058E093CF01E881E054E093AA
:10045600D001A4E1B0E00E945E040E942A040E943A
:100466002A040E942A04A0E288DF88EC90E0019723
:10047600F1F7A8E297DFA4E095DFA5E893DFA6E011
:1004860091DFA9DF05C0AA935D9BFECFE881ECB999
:1004960021960895BA93AA931A930E94220419F0FA
:1004A600A12FF1DFFACFAAE0EEDF18812396089597
:1004B600BA93AA931A930A93AA81BB8112960E94B1
:1004C6009004309759F1AA81BB8114960E9490043A
:1004D6008F01309761F00230E0E01E0798F0F801D6
:1004E60031978F01AA81BB811496ED93FC93AA8163
:1004F600BB811296ED91FD913196FE93EE93319765
:10050600AC81A083AA81BB810E949004FF232AF0BC
:10051600ED91FD913196FE93EE9306C0AA81BB81C3
:10052600EFEFFFEFED93FC9319810881259608956F
:10053600BA93AA9326970E949D0410E0AC85BD85C8
:10054600E0E0F0E0ED93FC93EA89FB893196EA8BD3
:10055600FB8B3197E4912E2FE03009F415C1E12F82
:10056600E03039F4253211F411E002C00E94320461
:100576000AC1E130A9F4253219F40E94320402C1FD
:1005860012E040E000E02D3211F401E0FCC02B3215
:1005960011F44BE2F8C0203211F440E2F4C002C07C
:1005A600E23039F450E013E0203311F40068EBC078
:1005B60003C0E33009F0E7C0203310F02A3308F017
:1005C60007C0AAE05A9F502DE22FE0535E0FDBC012
:1005D600E22FE33649F40E943904E889F989A481B7
:1005E600AA930E943F04CEC0E33741F40E94390427
:1005F6000E9445040E9403041E2F0AC0E03761F4DE
:100606000E9439040E9445040E940F041E2F0860B0
:1006160002600F7730E034C0E43611F0E93611F4A9
:10062600046002C0E53731F4E4E5F0E0EE83FF83D1
:1006360015E00CC0E83511F4086003C0E83709F08E
:10064600A1C0EEE5F0E0EE83FF8314E002FF14C0E4
:100656000E9439040E944F04AB85AA233AF4EA8526
:10066600FB850E946C04EA87FB874DE2403011F05F
:100676001F5F01C00B7F04C00E9439040E944F0413
:1006860000FD11C0151778F407FF08C002FF04C06B
:100696000B7F242F115001C020E301C020E20E94ED
:1006A60032045150EFCF312F01FF17C03030A1F087
:1006B60003FF06C0EE81FF812591EE83FF8305C00F
:1006C600AE81BF812D91AE83BF830E94320450302C
:1006D60009F051503150EACF4BC020E3EE81FF8143
:1006E6000E949404E887F987EE81FF813296EE83B3
:1006F600FF83E885F985AA85BB85AE17BF0750F04D
:100706002F5FA885B985EA85FB85EA1BFB0BEA877F
:10071600FB87EFCF2A3328F003FF02C0295F01C011
:10072600295D04FD1AC0213320F4A885B9851197E7
:1007360009F409C0531710F000FF01C013C020E2EE
:1007460007FF0BC020E3006102FF07C00B7F4A933F
:100756000E943F04503009F051500E94320450303C
:1007660009F051503150A885B985129708F0B5CFD8
:1007760000FF08C0503031F05150E0E2EA930E9489
:100786003F04F8CF10E0E0CEAC85BD850E94900412
:100796000E94A40464960895FF92F82E26970E945C
:1007A6009F040E945704309719F4EFEFFFEF23C020
:1007B600DE0116960E9468048D010E945704EE839E
:1007C600FF83E0E0E887E987DE011A960E94680465
:1007D6000E949004FA93EA931A930A93EBE5F2E0E7
:1007E600FA93EA93DE011A96A3DE9F01AE81BF81DA
:1007F600E0E0EC93F9010E94A6042A96FF90089582
:10080600BA93AA93A991B991EE27FF276D91662312
:1008160011F03196FBCF0895BA93AA93AA27BB2766
:10082600E991F9910590002011F01196FBCFFD0199
:1008360008950E94D501A3E0B0E00C945E04A9815E
:10084600BA81ED91A983BA831E2FE0300895A0E303
:100856000E94C00188EC90E00197F1F708952A9371
:10086600AD85BE85EF85F88909950895E889F989EA
:100876003497E88BF98B0895AD85BE85EF85F889A9
:1008860009950895A889B98914960E949004EE8363
:10089600FF83AE81BF810895A889B98914960E9405
:1008A6009004EA87FB870895DE011C960E9468047F
:1008B6000E9490040895109639F080ED97E0019714
:1008C600F1F7A8951197C9F708950024AF0DB01D4B
:1008D6000895F195E195F04008956F2F660F660B28
:1008E600762F0895FA9FF02DEB9FF00DEA9FE02DED
:1008F600F10D089504D0F6DF0EF4EBDF0895E894C9
:10090600F7FF02C0E6DF6894B7FF06C0A095B09572
:10091600119600F8039400FA0895ED91FC91119751
:1009260008950590F491E02D08957A936A93FA93C9
:10093600EA9308955A934A933A932A931A930A93F9
:1009460008955D814C813B812A8119810881089532
:00000001FF
