:080000000C948E000C9400002A
:100008000C9400000C9400000C9400000C94000068
:100018000C9400000C9400000C9400000C94000058
:100028000C9400000C94BB000C9400000C94ED00A0
:100038000C9400000C9400000C9400000C94000038
:100048000C9400000C9400000C9400001027E803A6
:1000580064000A0001000010000110000100000007
:100068000000000000000000000000000000000088
:100078000000000000000000000000000000000078
:100088000000000000000000000000000000000068
:100098000000000000000000000000000000000058
:1000A8000D4672616D65206D75737420626520352B
:1000B80020696E74656765720D000D4C656E677416
:1000C80068206F66206672616D65206E6F742063AC
:1000D8006F72726563740D00094672616D652069FF
:1000E8007320636F72726563740D000080C0010035
:1000F800020066000600040068001A006001A800FB
:100108001E007A01C20013009801E0000200BB0142
:10011800F4000000F894EE27ECBBF1E0FBBFEBBF66
:10012800E5BF8DE0A2E0BB27ED938A95E9F780E073
:1001380094E0A0E6ED930197E9F7E6EFF0E085910A
:100148009591009761F0A591B59105901590BF0123
:10015800F00105900D920197E1F7FB01F0CFEFE573
:10016800EDBFE4E0EEBFC0E6D1E00C94C001EA9335
:10017800FA93EFB7EA931A930A931BB10CB1E12FE4
:10018800EC7189F4E52D5394F0E0E555FE4F0083BA
:10019800E8E0E51509F455247394E8E0E71519F447
:1001A8007724689420F80991199125C01A9377202B
:1001B800F1F3E42D4394F0E0E555FE4F1081E8E0BB
:1001C800E41509F44424F8947A947894E12F199169
:1001D8000895EA93FA93EFB7EA93882061F08A9436
:1001E800E92D9394F0E0ED54FE4FE081ECB9E8E09E
:1001F800E91509F49924E991EFBFF991E991189566
:10020800AA93E8E0E815E9F3F894882011F45D99D9
:100218000DC0E62D6394F0E0ED54FE4FA881A08355
:10022800E8E0E61509F46624839402C0E881ECB995
:1002380078940C947802E99789E3A0E0B0E0EEE6C0
:10024800F0E00E94C5020E94B70210E020E030E012
:1002580040E050E00E948A02E8E2E8872F5F3F4FC3
:100268001D3059F0F901DE011896EA0FFB1F1083C3
:100278000E948A022F5F3F4FF3CFDE011896A20F2C
:10028800B31FE9E2EC93E0E0EE83EF830E94900273
:10029800AC91A93209F452C00E949002EC91F0E0AE
:1002A800E033A0E0FA0719F440E050E041C0E13340
:1002B800A0E0FA0719F441E050E03AC0E233A0E0C8
:1002C800FA0719F442E050E033C0E333A0E0FA073C
:1002D80019F443E050E02CC0E433A0E0FA0719F425
:1002E80044E050E025C0E533A0E0FA0719F445E002
:1002F80050E01EC0E633A0E0FA0719F446E050E0EB
:1003080017C0E733A0E0FA0719F447E050E010C03F
:10031800E833A0E0FA0719F448E050E009C0E933EF
:10032800A0E0FA0719F449E050E002C044E650E0C2
:10033800EE81FF813196EE83FF83A8CF4A30E0E05B
:100348005E072CF0A0E6B1E00E947A0211C0E6E058
:10035800F0E0E217F30729F0AAE7B1E00E947A0279
:1003680007C0A8E9B1E00E947A02DE01189686D09B
:100378000E94BE02EF960895E0E0EABBEBBBE7BB44
:10038800E8BBEFEFE4BBE0E0E5BBE1BBE2BBE3BF0A
:10039800E2BFECBFEFBDEEBDEDBDECBDE7BDE6BD18
:1003A800EBBDEABDE9BDE8BDE2BDE5BDE4BDE3BD29
:1003B800E9BFE5BFE4BFEBB9E8EDEAB9E6E8E0BDBF
:1003C800E0E0E0BDE3E3E9B9E0E8E8B9E0E0E0BF98
:1003D800E6B9EDB9E6BFA8E05BD078942CDFFECF94
:1003E800FFCFAA93E5B3EF70AE2FE881E07FEA2B49
:1003F800E5BB8DE08A95F1F7AA9A8DE08A95F1F729
:10040800AA988DE08A95F1F76FC0AA93A881E9DFD1
:10041800E881E295E883A881E4DF85E88A95F1F729
:1004280063C0AA93E881F0E0E554FE4FE081A9811A
:10043800AE0FEBDFB980A88022960895A2E00E9453
:100448009702ACE0E2DFA1E00E949702E0E0AE2E66
:10045800BE2E0895AA93A881AA3011F0BD1440F0C9
:10046800E0E0EA93A394AA2DDCDFA881AA30E1F1A9
:10047800B394A89AA881C9DFA89836C0BA93AA935A
:100488001A930E949D0219F0A12FE4DFFACF3BC016
:10049800AA93E4B3E06FE4BBA29AA09AA19AAA989F
:1004A800A898A998D880E881E058E093BD01E88130
:1004B800E054E093BE01A4E1B0E00E94AD020E94C6
:1004C800A5020E94A5020E94A502A0E28ADF88EC8C
:1004D80090E00197F1F7A8E298DFA4E096DFA5E89D
:1004E80094DFA6E092DFAADF21960895BA93AA9333
:1004F8001A930E949D0221F0A12F0E940401F9CFB6
:10050800AAE00E9404011881239608950E94DA0047
:100518001E2FA12F0C940401EE81FF81DE01189695
:10052800AE0FBF1F08950E940902A3E0B0E00C942B
:10053800AD02A981BA81ED91A983BA831E2FE0305B
:100548000895A0E30E94F50188EC90E00197F1F787
:100558000895109639F080ED97E00197F1F7A89586
:100568001197C9F708955A934A933A932A931A937D
:100578000A9308955D814C813B812A811981088104
:100588000895AC0FBD1F05900D928A95E1F7089567
:00000001FF
