:100000000C945A000C9400000C9400000C94000016
:100010000C948C000C9400000C9400000C940000D4
:100020000C9400000C9487000C9400000C940000C9
:100030000C9400000C9400000C9400000C94000040
:100040000C9400000C9400000C9400000C94000030
:100050000C9400001027E80364000A00010000105F
:100060000001100001000100010060012000256472
:10007000006379636C652F73000080C001002D4E12
:10008000414E00494E46000001006A016600010031
:100090006E016800020060016C00020070016A00DD
:1000A000080062017100020076017A0001007A0105
:1000B0007C000000F894EE27ECBBF1E0FBBFEBBF47
:1000C000E5BF8DE0A2E0BB27ED938A95E9F780E0DC
:1000D00094E0A0E6ED930197E9F7E8E8F0E0859178
:1000E0009591009761F0A591B59105901590BF018C
:1000F000F00105900D920197E1F7FB01F0CFEFE5DC
:10010000EDBFE4E0EEBFC0E6D1E00C94A0000E9499
:100110005A040E94DD0006C00E945A04E2EBE4BDCE
:100120000E941201E991EFBFF991E991B991A9916A
:100130009991899179916991F990199009901895FF
:1001400008D00E94B700A0E10E9423027894FFCF5C
:10015000FFCFE0E0EABBEBBBE8EFE7BBE0E0E8BBEA
:10016000EFEFE4BBE0E0E5BBE1BBE2BB0895E5E611
:10017000E3BFE0E0E2BFE5EEECBFE0E0EFBDEEBDE7
:10018000EDBDECBDE7BDE6BDEBBDEABDE9BDE8BD3B
:10019000E2BDE7E0E5BDE2EBE4BDE0E0E3BDE1E4C4
:1001A000E9BFE0E0E5BFE4BFEAB9E0E8E8B9E0E0D4
:1001B000E0BFE6B9EDB9E6BF0895EFE0F0E00E94D8
:1001C0006804A8EEB3E00E94F604E0E0EABBE9B3FD
:1001D000F0E00E946D04AAE5B0E00E94FE05DF0198
:1001E000EFEFF0E00E94160635960E946D04AFEF27
:1001F000B0E00E94FE05DF01E4E6F0E00E94160692
:100200000E94F1050E945C05DF01CB010E942A04D7
:10021000A4E7B1E00E942505ED93FC93E091740101
:10022000ECBF08950E947304A536E0E0BE0734F5E4
:10023000A0916E01B0916F011197F1F40E947804C2
:10024000119711F40E947D040E947804129711F412
:100250000E9489040E947804139711F40E94950467
:100260000E947804149711F40E94A1040E9478045B
:10027000159714F00E94AD040E94B4040E94730408
:10028000A436E0E0BE0779F4C498C598C698C7982C
:10029000E0E0E0936E01E0936F01A2E3B0E00E9422
:1002A000F6040E94B4040E947304A536E0E0BE0781
:1002B00034F00E947304A93CE0E0BE070CF026C0B5
:1002C000E0916E01F0916F013097F1F40E94780493
:1002D000119711F40E94A1040E947804129711F45E
:1002E0000E9495040E947804139711F40E948904D7
:1002F0000E947804149711F40E947D040E947804EF
:10030000159714F00E94AD040E94B4040E94730477
:10031000A93CE0E0BE075CF0E0E0E0936C01E09314
:100320006D01E1E0F0E0E0936E01F0936F01E9E12F
:10033000F0E0E0937201F0937301E0917001F091AD
:100340007101FA93EA93EEE6F0E0FA93EA93E09112
:100350007201F09173010E94F1050E94400684E051
:100360000E94C5032896E0E0EA93A0E02DD0A0917A
:100370007001B091710156D0E5E0EA93A0E024D07D
:10038000A2E6B1E04FD00895AA93E5B3EF70AE2F87
:10039000E881E07FEA2BE5BB8DE08A95F1F7AA9A28
:1003A0008DE08A95F1F7AA988DE08A95F1F777C0EC
:1003B000AA93A881E9DFE881E295E883A881E4DFD8
:1003C00085E88A95F1F76BC0AA93E881F0E0EA58D6
:1003D000FE4FE081A981AE0FEBDF59804880229665
:1003E0000895A2E00E94BC04ACE0E2DFA1E00E941C
:1003F000BC04E0E04E2E5E2E0895AA93A881AA3098
:1004000011F0571448F0E0E0EA934394A42DDCDFA8
:10041000A881AA3009F443C05394A89AA881C8DFE0
:10042000A8983DC0BA93AA931A93A981BA81ED9175
:10043000A983BA831E2FE03019F0A12FDEDFF5CF9C
:10044000188123960895AA93E4B3E06FE4BBA29ABF
:10045000A09AA19AAA98A898A9987880E881E058CB
:10046000E0937801E881E054E0937901A4E1B0E001
:100470000E94F6040E94C2040E94C2040E94C204A8
:10048000A0E282DF88EC90E00197F1F7A8E290DF2C
:10049000A4E08EDFA5E88CDFA6E08ADFA2DF21964C
:1004A0000895BA93AA931A930A93AA81BB811296CC
:1004B0000E942906309759F1AA81BB8114960E94A7
:1004C00029068F01309761F00230E0E01E0798F0B6
:1004D000F80131978F01AA81BB811496ED93FC93AB
:1004E000AA81BB811296ED91FD913196FE93EE9318
:1004F0003197AC81A083AA81BB810E942906FF238A
:100500002AF0ED91FD913196FE93EE9306C0AA81FB
:10051000BB81EFEFFFEFED93FC93198108812596E6
:100520000895BA93AA9326970E944A0610E0AC85D4
:10053000BD85E0E0F0E0ED93FC93EA89FB8931961C
:10054000EA8BFB8B3197E4912E2FE03009F415C133
:10055000E12FE03039F4253211F411E002C00E949D
:10056000CA040AC1E130A9F4253219F40E94CA0470
:1005700002C112E040E000E02D3211F401E0FCC0C5
:100580002B3211F44BE2F8C0203211F440E2F4C0F7
:1005900002C0E23039F450E013E0203311F4006877
:1005A000EBC003C0E33009F0E7C0203310F02A337A
:1005B00008F007C0AAE05A9F502DE22FE0535E0FCB
:1005C000DBC0E22FE33649F40E94D104E889F989BF
:1005D000A481AA930E94D704CEC0E33741F40E94BD
:1005E000D1040E94DD040E9441041E2F0AC0E0379E
:1005F00061F40E94D1040E94DD040E944D041E2F6C
:10060000086002600F7730E034C0E43611F0E9365C
:1006100011F4046002C0E53731F4E4E5F0E0EE8364
:10062000FF8315E00CC0E83511F4086003C0E8371B
:1006300009F0A1C0EEE5F0E0EE83FF8314E002FFD5
:1006400014C00E94D1040E94E704AB85AA233AF4A7
:10065000EA85FB850E94E505EA87FB874DE240308D
:1006600011F01F5F01C00B7F04C00E94D1040E94E3
:10067000E70400FD11C0151778F407FF08C002FF5A
:1006800004C00B7F242F115001C020E301C020E2E1
:100690000E94CA045150EFCF312F01FF17C03030F4
:1006A000A1F003FF06C0EE81FF812591EE83FF8359
:1006B00005C0AE81BF812D91AE83BF830E94CA0465
:1006C000503009F051503150EACF4BC020E3EE8159
:1006D000FF810E942D06E887F987EE81FF8132961F
:1006E000EE83FF83E885F985AA85BB85AE17BF0732
:1006F00050F02F5FA885B985EA85FB85EA1BFB0BC7
:10070000EA87FB87EFCF2A3328F003FF02C0295F77
:1007100001C0295D04FD1AC0213320F4A885B985E4
:10072000119709F409C0531710F000FF01C013C05E
:1007300020E207FF0BC020E3006102FF07C00B7F30
:100740004A930E94D704503009F051500E94CA04C5
:10075000503009F051503150A885B985129708F0F2
:10076000B5CF00FF08C0503031F05150E0E2EA93BD
:100770000E94D704F8CF10E0E0CEAC85BD850E9482
:1007800029060E94510664960895FF92F82E269736
:100790000E944C060E94EF04309719F4EFEFFFEF30
:1007A00023C0DE0116960E94E1058D010E94EF0430
:1007B000EE83FF83E0E0E887E987DE011A960E9476
:1007C000E1050E942906FA93EA931A930A93E1E558
:1007D000F2E0FA93EA93DE011A96A3DE9F01AE815E
:1007E000BF81E0E0EC93F9010E9453062A96FF9046
:1007F00008950E9445067B816A81F981E88177FB33
:10080000770F67FD7160972F9E5781F078F09831D0
:1008100090F4AA27BB27882708948795B795A795B2
:100820009A95D1F7EA23FB23682305C0E89477273C
:10083000EE27FF2766276F77769508F4606877F9CB
:10084000A991B99189919991EA17FB0768077907EE
:1008500097FB08950E9445060E9436060E94F90300
:100860000E943B0619F40E94310609C0E6F70E9477
:100870003106A0E0B0E080E89FE30E948F05249657
:100880000895BA93AA93A991B991EE27FF276D9184
:10089000662311F03196FBCF0895BA93AA93AA2745
:1008A000BB27E991F9910590002011F01196FBCF3B
:1008B000FD0108950A921A92FA926A937A938A93A2
:1008C0009A93AA93BA93EA93FA93EFB7EA930895A7
:1008D000E0937401F09375010895FADFE0917401DB
:1008E000F09175010895A0916C01B0916D0108958A
:1008F000A0916A01B0916B010895C49AC598C698F9
:10090000C798AAE6B1E0ED91FD913196FE93EE9382
:100910000895C498C59AC698C798AAE6B1E0ED9123
:10092000FD913196FE93EE930895C498C598C69AAA
:10093000C798AAE6B1E0ED91FD913196FE93EE9352
:100940000895C498C598C698C79AAAE6B1E0ED91F3
:10095000FD913196FE93EE930895E1E0F0E0E0938F
:100960006A01F0936B010895ACE6B1E0ED91FD9161
:100970003196FE93EE9308950E94D801A3E0B0E073
:100980000C94F604A0E30E94C40188EC90E0019767
:10099000F1F708952A93AD85BE85EF85F88909950D
:1009A0000895E889F9893497E88BF98B0895AD8526
:1009B000BE85EF85F88909950895A889B9891496A7
:1009C0000E942906EE83FF83AE81BF810895A88926
:1009D000B98914960E942906EA87FB870895DE01EB
:1009E0001C960E94E1050E9429060895109639F090
:1009F00080ED97E00197F1F7A8951197C9F7089551
:100A000050E8572711F45F93CAC05F3F31F0660F7B
:100A1000000C57956795752F08955F9300200AF095
:100A2000CAC0C3C050E8192E1522880F991F9527F8
:100A3000550F879550E8072E0522660F771F7527FB
:100A4000550F67950895689401C0E8945F93F2DFAD
:100A5000703818F07F3F08F4A2C056E1571BAAF483
:100A6000519558300EF4593030F0EFEFFFEF6FEF43
:100A70007FE777F91AC077275523B9F0EE0FFF1FEC
:100A8000661F771F5A95D1F710C07727583028F086
:100A9000EF2FF62F672F5850F9CF552331F0769569
:100AA0006795F795E7955A95D1F700200AF491D00C
:100AB0005F910895689401C0E89430976040704059
:100AC000B1F0002426F0772312F4009482D0172E80
:100AD0007EE1112032F07A95EE0FFF1F661F111C88
:100AE000F9CFEF2FF62F612D5F938ADF5F91089585
:100AF0004F93AF01FD01DA01AB01BC01CA01402DEA
:100B0000012C142E4F910895EA0FFB1F681F0895C2
:100B1000E095F0956095EF5FFF4F6F4F08955F93FD
:100B200081DF903849F150E81526703821F1572FB0
:100B3000591B2BF112F4DCDFFACF583118F0AA2739
:100B4000BB278827583028F0AB2FB82F882758505C
:100B5000F9CF552329F08695B795A7955A95D9F7DA
:100B6000502D512572F0D0DF38F46795F795E79551
:100B7000739513F420C0BCDF43DF5F910895D8F76D
:100B8000FBCFEA1BFB0B680B51F010F40094C0DFA5
:100B9000662392F3EE0FFF1F661F7A95CBF7EE27C1
:100BA000FF27662777275F910895EFEFFFEF6FE745
:100BB0007FEF5F910895EFEFFFEF6FE77FE75F91C2
:100BC00008950024AF0DB01D0895F195E195F04012
:100BD0000895F09560957095E195FF4F6F4F7F4FA9
:100BE00008956F2F660F660B762F0895FA9FF02DEC
:100BF000EB9FF00DEA9FE02DF10D08951CD0F6DF7C
:100C00000EF4E3DF08950024112490E1AA0FBB1F26
:100C1000001C111C0E1A1F0A18F40E0E1F1E01C014
:100C2000A1609A9599F7FD01D001089504D0EBDFFA
:100C30000EF4CBDF0895E894F7FF02C0C6DF689496
:100C4000B7FF06C0A095B095119600F8039400FA7E
:100C50000895ED91FC91119708950590F491E02D80
:100C60000895E881F9816A817B810895A881B9811D
:100C70008A819B810895E883F9836A837B83089541
:100C80007A936A93FA93EA9308959A938A93BA931C
:100C9000AA9308955A934A933A932A931A930A93DC
:100CA00008955D814C813B812A81198108810895D5
:00000001FF
